{
  "contractName": "APIv102",
  "abi": [
    {
      "constant": true,
      "inputs": [],
      "name": "owner",
      "outputs": [
        {
          "name": "",
          "type": "address"
        }
      ],
      "payable": false,
      "stateMutability": "view",
      "type": "function"
    },
    {
      "constant": true,
      "inputs": [],
      "name": "isOwner",
      "outputs": [
        {
          "name": "",
          "type": "bool"
        }
      ],
      "payable": false,
      "stateMutability": "view",
      "type": "function"
    },
    {
      "inputs": [
        {
          "name": "storageAddress",
          "type": "address"
        }
      ],
      "payable": false,
      "stateMutability": "nonpayable",
      "type": "constructor"
    },
    {
      "anonymous": false,
      "inputs": [
        {
          "indexed": false,
          "name": "key",
          "type": "string"
        },
        {
          "indexed": false,
          "name": "value",
          "type": "string"
        }
      ],
      "name": "OutputString",
      "type": "event"
    },
    {
      "anonymous": false,
      "inputs": [
        {
          "indexed": false,
          "name": "key",
          "type": "string"
        },
        {
          "indexed": false,
          "name": "value",
          "type": "address"
        }
      ],
      "name": "OutputAddress",
      "type": "event"
    },
    {
      "anonymous": false,
      "inputs": [
        {
          "indexed": false,
          "name": "key",
          "type": "string"
        },
        {
          "indexed": false,
          "name": "value",
          "type": "bytes32"
        }
      ],
      "name": "OutputBytes32",
      "type": "event"
    },
    {
      "anonymous": false,
      "inputs": [
        {
          "indexed": false,
          "name": "key",
          "type": "string"
        },
        {
          "indexed": false,
          "name": "value",
          "type": "uint256"
        }
      ],
      "name": "OutputUint256",
      "type": "event"
    },
    {
      "constant": true,
      "inputs": [],
      "name": "getDataControllerAddress",
      "outputs": [
        {
          "name": "",
          "type": "address"
        }
      ],
      "payable": false,
      "stateMutability": "view",
      "type": "function"
    },
    {
      "constant": true,
      "inputs": [],
      "name": "getVersion",
      "outputs": [
        {
          "name": "",
          "type": "string"
        }
      ],
      "payable": false,
      "stateMutability": "view",
      "type": "function"
    },
    {
      "constant": false,
      "inputs": [
        {
          "name": "h",
          "type": "string"
        },
        {
          "name": "blockNo",
          "type": "string"
        },
        {
          "name": "platformID",
          "type": "string"
        }
      ],
      "name": "addAsset",
      "outputs": [
        {
          "name": "",
          "type": "string"
        }
      ],
      "payable": false,
      "stateMutability": "nonpayable",
      "type": "function"
    },
    {
      "constant": true,
      "inputs": [
        {
          "name": "h",
          "type": "string"
        }
      ],
      "name": "getAsset",
      "outputs": [
        {
          "name": "blockNo",
          "type": "string"
        },
        {
          "name": "platformID",
          "type": "string"
        }
      ],
      "payable": false,
      "stateMutability": "view",
      "type": "function"
    },
    {
      "constant": false,
      "inputs": [
        {
          "name": "newWriter",
          "type": "address"
        }
      ],
      "name": "addWriter",
      "outputs": [],
      "payable": false,
      "stateMutability": "nonpayable",
      "type": "function"
    },
    {
      "constant": false,
      "inputs": [
        {
          "name": "newKey",
          "type": "string"
        },
        {
          "name": "title",
          "type": "string"
        },
        {
          "name": "author",
          "type": "string"
        },
        {
          "name": "origin",
          "type": "string"
        },
        {
          "name": "lang",
          "type": "string"
        },
        {
          "name": "paperback",
          "type": "uint256"
        },
        {
          "name": "publisherId",
          "type": "string"
        },
        {
          "name": "publishDate",
          "type": "uint256"
        }
      ],
      "name": "addBook",
      "outputs": [
        {
          "name": "",
          "type": "string"
        }
      ],
      "payable": false,
      "stateMutability": "nonpayable",
      "type": "function"
    },
    {
      "constant": false,
      "inputs": [
        {
          "name": "newKey",
          "type": "string"
        },
        {
          "name": "digest",
          "type": "uint256[]"
        }
      ],
      "name": "uploadDigest",
      "outputs": [
        {
          "name": "",
          "type": "string"
        }
      ],
      "payable": false,
      "stateMutability": "nonpayable",
      "type": "function"
    },
    {
      "constant": true,
      "inputs": [
        {
          "name": "newKey",
          "type": "string"
        }
      ],
      "name": "downloadDigest",
      "outputs": [
        {
          "name": "digest",
          "type": "uint256[]"
        }
      ],
      "payable": false,
      "stateMutability": "view",
      "type": "function"
    },
    {
      "constant": true,
      "inputs": [
        {
          "name": "key",
          "type": "string"
        }
      ],
      "name": "getBook",
      "outputs": [
        {
          "name": "title",
          "type": "string"
        },
        {
          "name": "author",
          "type": "string"
        },
        {
          "name": "lang",
          "type": "string"
        },
        {
          "name": "publisherId",
          "type": "string"
        },
        {
          "name": "publishDate",
          "type": "uint256"
        }
      ],
      "payable": false,
      "stateMutability": "view",
      "type": "function"
    },
    {
      "constant": true,
      "inputs": [
        {
          "name": "key",
          "type": "string"
        }
      ],
      "name": "getAdditionalBookData",
      "outputs": [
        {
          "name": "origin",
          "type": "string"
        },
        {
          "name": "paperback",
          "type": "uint256"
        }
      ],
      "payable": false,
      "stateMutability": "view",
      "type": "function"
    }
  ],
  "bytecode": "0x608060405234801561001057600080fd5b506040516020806200573083398101806040528101908080519060200190929190505050336000806101000a81548173ffffffffffffffffffffffffffffffffffffffff021916908373ffffffffffffffffffffffffffffffffffffffff16021790555060018060003373ffffffffffffffffffffffffffffffffffffffff1673ffffffffffffffffffffffffffffffffffffffff16815260200190815260200160002060006101000a81548160ff021916908315150217905550336000806101000a81548173ffffffffffffffffffffffffffffffffffffffff021916908373ffffffffffffffffffffffffffffffffffffffff160217905550806101146101ee565b808273ffffffffffffffffffffffffffffffffffffffff1673ffffffffffffffffffffffffffffffffffffffff168152602001915050604051809103906000f080158015610166573d6000803e3d6000fd5b50600360006101000a81548173ffffffffffffffffffffffffffffffffffffffff021916908373ffffffffffffffffffffffffffffffffffffffff16021790555080600260006101000a81548173ffffffffffffffffffffffffffffffffffffffff021916908373ffffffffffffffffffffffffffffffffffffffff160217905550506101ff565b60405161343380620022fd83390190565b6120ee806200020f6000396000f3006080604052600436106100ba576000357c0100000000000000000000000000000000000000000000000000000000900463ffffffff1680630d8e6e2c146100bf5780636fd62bfe1461014f5780637b09db4c1461020d5780638da5cb5b146102645780638f32d59b146102bb57806393cd4526146102ea578063a5709b7b14610458578063c37a83611461057d578063cbb873f7146107aa578063cd5286d0146109fe578063da2824a814610b4c578063f83ccc2d14610b8f575b600080fd5b3480156100cb57600080fd5b506100d4610c78565b6040518080602001828103825283818151815260200191508051906020019080838360005b838110156101145780820151818401526020810190506100f9565b50505050905090810190601f1680156101415780820380516001836020036101000a031916815260200191505b509250505060405180910390f35b34801561015b57600080fd5b506101b6600480360381019080803590602001908201803590602001908080601f0160208091040260200160405190810160405280939291908181526020018383808284378201915050505050509192919290505050610cb5565b6040518080602001828103825283818151815260200191508051906020019060200280838360005b838110156101f95780820151818401526020810190506101de565b505050509050019250505060405180910390f35b34801561021957600080fd5b50610222610e45565b604051808273ffffffffffffffffffffffffffffffffffffffff1673ffffffffffffffffffffffffffffffffffffffff16815260200191505060405180910390f35b34801561027057600080fd5b50610279610e6f565b604051808273ffffffffffffffffffffffffffffffffffffffff1673ffffffffffffffffffffffffffffffffffffffff16815260200191505060405180910390f35b3480156102c757600080fd5b506102d0610e98565b604051808215151515815260200191505060405180910390f35b3480156102f657600080fd5b506103dd600480360381019080803590602001908201803590602001908080601f0160208091040260200160405190810160405280939291908181526020018383808284378201915050505050509192919290803590602001908201803590602001908080601f0160208091040260200160405190810160405280939291908181526020018383808284378201915050505050509192919290803590602001908201803590602001908080601f0160208091040260200160405190810160405280939291908181526020018383808284378201915050505050509192919290505050610eef565b6040518080602001828103825283818151815260200191508051906020019080838360005b8381101561041d578082015181840152602081019050610402565b50505050905090810190601f16801561044a5780820380516001836020036101000a031916815260200191505b509250505060405180910390f35b34801561046457600080fd5b50610502600480360381019080803590602001908201803590602001908080601f01602080910402602001604051908101604052809392919081815260200183838082843782019150505050505091929192908035906020019082018035906020019080806020026020016040519081016040528093929190818152602001838360200280828437820191505050505050919291929050505061125d565b6040518080602001828103825283818151815260200191508051906020019080838360005b83811015610542578082015181840152602081019050610527565b50505050905090810190601f16801561056f5780820380516001836020036101000a031916815260200191505b509250505060405180910390f35b34801561058957600080fd5b506105e4600480360381019080803590602001908201803590602001908080601f0160208091040260200160405190810160405280939291908181526020018383808284378201915050505050509192919290505050611502565b604051808060200180602001806020018060200186815260200185810385528a818151815260200191508051906020019080838360005b8381101561063657808201518184015260208101905061061b565b50505050905090810190601f1680156106635780820380516001836020036101000a031916815260200191505b50858103845289818151815260200191508051906020019080838360005b8381101561069c578082015181840152602081019050610681565b50505050905090810190601f1680156106c95780820380516001836020036101000a031916815260200191505b50858103835288818151815260200191508051906020019080838360005b838110156107025780820151818401526020810190506106e7565b50505050905090810190601f16801561072f5780820380516001836020036101000a031916815260200191505b50858103825287818151815260200191508051906020019080838360005b8381101561076857808201518184015260208101905061074d565b50505050905090810190601f1680156107955780820380516001836020036101000a031916815260200191505b50995050505050505050505060405180910390f35b3480156107b657600080fd5b50610983600480360381019080803590602001908201803590602001908080601f0160208091040260200160405190810160405280939291908181526020018383808284378201915050505050509192919290803590602001908201803590602001908080601f0160208091040260200160405190810160405280939291908181526020018383808284378201915050505050509192919290803590602001908201803590602001908080601f0160208091040260200160405190810160405280939291908181526020018383808284378201915050505050509192919290803590602001908201803590602001908080601f0160208091040260200160405190810160405280939291908181526020018383808284378201915050505050509192919290803590602001908201803590602001908080601f016020809104026020016040519081016040528093929190818152602001838380828437820191505050505050919291929080359060200190929190803590602001908201803590602001908080601f0160208091040260200160405190810160405280939291908181526020018383808284378201915050505050509192919290803590602001909291905050506117a8565b6040518080602001828103825283818151815260200191508051906020019080838360005b838110156109c35780820151818401526020810190506109a8565b50505050905090810190601f1680156109f05780820380516001836020036101000a031916815260200191505b509250505060405180910390f35b348015610a0a57600080fd5b50610a65600480360381019080803590602001908201803590602001908080601f0160208091040260200160405190810160405280939291908181526020018383808284378201915050505050509192919290505050611c3b565b604051808060200180602001838103835285818151815260200191508051906020019080838360005b83811015610aa9578082015181840152602081019050610a8e565b50505050905090810190601f168015610ad65780820380516001836020036101000a031916815260200191505b50838103825284818151815260200191508051906020019080838360005b83811015610b0f578082015181840152602081019050610af4565b50505050905090810190601f168015610b3c5780820380516001836020036101000a031916815260200191505b5094505050505060405180910390f35b348015610b5857600080fd5b50610b8d600480360381019080803573ffffffffffffffffffffffffffffffffffffffff169060200190929190505050611e21565b005b348015610b9b57600080fd5b50610bf6600480360381019080803590602001908201803590602001908080601f0160208091040260200160405190810160405280939291908181526020018383808284378201915050505050509192919290505050611f1d565b6040518080602001838152602001828103825284818151815260200191508051906020019080838360005b83811015610c3c578082015181840152602081019050610c21565b50505050905090810190601f168015610c695780820380516001836020036101000a031916815260200191505b50935050505060405180910390f35b60606040805190810160405280600481526020017f76312e3000000000000000000000000000000000000000000000000000000000815250905090565b6060600360009054906101000a900473ffffffffffffffffffffffffffffffffffffffff1673ffffffffffffffffffffffffffffffffffffffff16636fd62bfe836040518263ffffffff167c01000000000000000000000000000000000000000000000000000000000281526004018080602001828103825283818151815260200191508051906020019080838360005b83811015610d61578082015181840152602081019050610d46565b50505050905090810190601f168015610d8e5780820380516001836020036101000a031916815260200191505b5092505050600060405180830381600087803b158015610dad57600080fd5b505af1158015610dc1573d6000803e3d6000fd5b505050506040513d6000823e3d601f19601f820116820180604052506020811015610deb57600080fd5b810190808051640100000000811115610e0357600080fd5b82810190506020810184811115610e1957600080fd5b8151856020820283011164010000000082111715610e3657600080fd5b50509291905050509050919050565b6000600360009054906101000a900473ffffffffffffffffffffffffffffffffffffffff16905090565b60008060009054906101000a900473ffffffffffffffffffffffffffffffffffffffff16905090565b60008060009054906101000a900473ffffffffffffffffffffffffffffffffffffffff1673ffffffffffffffffffffffffffffffffffffffff163373ffffffffffffffffffffffffffffffffffffffff1614905090565b60608060011515600160003373ffffffffffffffffffffffffffffffffffffffff1673ffffffffffffffffffffffffffffffffffffffff16815260200190815260200160002060009054906101000a900460ff1615151480610f555750610f54610e98565b5b1515610fef576040517f08c379a00000000000000000000000000000000000000000000000000000000081526004018080602001828103825260278152602001807f53656e646572206e6f7420617574686f72697a656420746f207772697465207381526020017f746f726167652e0000000000000000000000000000000000000000000000000081525060400191505060405180910390fd5b600360009054906101000a900473ffffffffffffffffffffffffffffffffffffffff1673ffffffffffffffffffffffffffffffffffffffff166393cd45268686866040518463ffffffff167c010000000000000000000000000000000000000000000000000000000002815260040180806020018060200180602001848103845287818151815260200191508051906020019080838360005b838110156110a3578082015181840152602081019050611088565b50505050905090810190601f1680156110d05780820380516001836020036101000a031916815260200191505b50848103835286818151815260200191508051906020019080838360005b838110156111095780820151818401526020810190506110ee565b50505050905090810190601f1680156111365780820380516001836020036101000a031916815260200191505b50848103825285818151815260200191508051906020019080838360005b8381101561116f578082015181840152602081019050611154565b50505050905090810190601f16801561119c5780820380516001836020036101000a031916815260200191505b509650505050505050600060405180830381600087803b1580156111bf57600080fd5b505af11580156111d3573d6000803e3d6000fd5b505050506040513d6000823e3d601f19601f8201168201806040525060208110156111fd57600080fd5b81019080805164010000000081111561121557600080fd5b8281019050602081018481111561122b57600080fd5b815185600182028301116401000000008211171561124857600080fd5b50509291905050509050809150509392505050565b6060806000809054906101000a900473ffffffffffffffffffffffffffffffffffffffff168073ffffffffffffffffffffffffffffffffffffffff163373ffffffffffffffffffffffffffffffffffffffff16141515611325576040517f08c379a00000000000000000000000000000000000000000000000000000000081526004018080602001828103825260168152602001807f53656e646572206e6f7420617574686f72697a65642e0000000000000000000081525060200191505060405180910390fd5b600360009054906101000a900473ffffffffffffffffffffffffffffffffffffffff1673ffffffffffffffffffffffffffffffffffffffff1663a5709b7b86866040518363ffffffff167c0100000000000000000000000000000000000000000000000000000000028152600401808060200180602001838103835285818151815260200191508051906020019080838360005b838110156113d45780820151818401526020810190506113b9565b50505050905090810190601f1680156114015780820380516001836020036101000a031916815260200191505b50838103825284818151815260200191508051906020019060200280838360005b8381101561143d578082015181840152602081019050611422565b50505050905001945050505050600060405180830381600087803b15801561146457600080fd5b505af1158015611478573d6000803e3d6000fd5b505050506040513d6000823e3d601f19601f8201168201806040525060208110156114a257600080fd5b8101908080516401000000008111156114ba57600080fd5b828101905060208101848111156114d057600080fd5b81518560018202830111640100000000821117156114ed57600080fd5b50509291905050509150819250505092915050565b6060806060806000600360009054906101000a900473ffffffffffffffffffffffffffffffffffffffff1673ffffffffffffffffffffffffffffffffffffffff1663b44fcd81876040518263ffffffff167c01000000000000000000000000000000000000000000000000000000000281526004018080602001828103825283818151815260200191508051906020019080838360005b838110156115b4578082015181840152602081019050611599565b50505050905090810190601f1680156115e15780820380516001836020036101000a031916815260200191505b5092505050600060405180830381600087803b15801561160057600080fd5b505af1158015611614573d6000803e3d6000fd5b505050506040513d6000823e3d601f19601f8201168201806040525060a081101561163e57600080fd5b81019080805164010000000081111561165657600080fd5b8281019050602081018481111561166c57600080fd5b815185600182028301116401000000008211171561168957600080fd5b505092919060200180516401000000008111156116a557600080fd5b828101905060208101848111156116bb57600080fd5b81518560018202830111640100000000821117156116d857600080fd5b505092919060200180516401000000008111156116f457600080fd5b8281019050602081018481111561170a57600080fd5b815185600182028301116401000000008211171561172757600080fd5b5050929190602001805164010000000081111561174357600080fd5b8281019050602081018481111561175957600080fd5b815185600182028301116401000000008211171561177657600080fd5b505092919060200180519060200190929190505050809550819650829750839850849950505050505091939590929450565b6060806000809054906101000a900473ffffffffffffffffffffffffffffffffffffffff168073ffffffffffffffffffffffffffffffffffffffff163373ffffffffffffffffffffffffffffffffffffffff16141515611870576040517f08c379a00000000000000000000000000000000000000000000000000000000081526004018080602001828103825260168152602001807f53656e646572206e6f7420617574686f72697a65642e0000000000000000000081525060200191505060405180910390fd5b600360009054906101000a900473ffffffffffffffffffffffffffffffffffffffff1673ffffffffffffffffffffffffffffffffffffffff1663cbb873f78c8c8c8c8c8c8c8c6040518963ffffffff167c01000000000000000000000000000000000000000000000000000000000281526004018080602001806020018060200180602001806020018981526020018060200188815260200187810387528f818151815260200191508051906020019080838360005b83811015611941578082015181840152602081019050611926565b50505050905090810190601f16801561196e5780820380516001836020036101000a031916815260200191505b5087810386528e818151815260200191508051906020019080838360005b838110156119a757808201518184015260208101905061198c565b50505050905090810190601f1680156119d45780820380516001836020036101000a031916815260200191505b5087810385528d818151815260200191508051906020019080838360005b83811015611a0d5780820151818401526020810190506119f2565b50505050905090810190601f168015611a3a5780820380516001836020036101000a031916815260200191505b5087810384528c818151815260200191508051906020019080838360005b83811015611a73578082015181840152602081019050611a58565b50505050905090810190601f168015611aa05780820380516001836020036101000a031916815260200191505b5087810383528b818151815260200191508051906020019080838360005b83811015611ad9578082015181840152602081019050611abe565b50505050905090810190601f168015611b065780820380516001836020036101000a031916815260200191505b50878103825289818151815260200191508051906020019080838360005b83811015611b3f578082015181840152602081019050611b24565b50505050905090810190601f168015611b6c5780820380516001836020036101000a031916815260200191505b509e505050505050505050505050505050600060405180830381600087803b158015611b9757600080fd5b505af1158015611bab573d6000803e3d6000fd5b505050506040513d6000823e3d601f19601f820116820180604052506020811015611bd557600080fd5b810190808051640100000000811115611bed57600080fd5b82810190506020810184811115611c0357600080fd5b8151856001820283011164010000000082111715611c2057600080fd5b50509291905050509150819250505098975050505050505050565b606080600360009054906101000a900473ffffffffffffffffffffffffffffffffffffffff1673ffffffffffffffffffffffffffffffffffffffff1663cd5286d0846040518263ffffffff167c01000000000000000000000000000000000000000000000000000000000281526004018080602001828103825283818151815260200191508051906020019080838360005b83811015611ce8578082015181840152602081019050611ccd565b50505050905090810190601f168015611d155780820380516001836020036101000a031916815260200191505b5092505050600060405180830381600087803b158015611d3457600080fd5b505af1158015611d48573d6000803e3d6000fd5b505050506040513d6000823e3d601f19601f820116820180604052506040811015611d7257600080fd5b810190808051640100000000811115611d8a57600080fd5b82810190506020810184811115611da057600080fd5b8151856001820283011164010000000082111715611dbd57600080fd5b50509291906020018051640100000000811115611dd957600080fd5b82810190506020810184811115611def57600080fd5b8151856001820283011164010000000082111715611e0c57600080fd5b50509291905050508092508193505050915091565b611e29610e98565b1515611ec3576040517f08c379a000000000000000000000000000000000000000000000000000000000815260040180806020018281038252602b8152602001807f53656e646572206973206e6f7420617574686f72697a65642077697468206f7781526020017f6e657220706f6c6963792e00000000000000000000000000000000000000000081525060400191505060405180910390fd5b60018060008373ffffffffffffffffffffffffffffffffffffffff1673ffffffffffffffffffffffffffffffffffffffff16815260200190815260200160002060006101000a81548160ff02191690831515021790555050565b60606000600360009054906101000a900473ffffffffffffffffffffffffffffffffffffffff1673ffffffffffffffffffffffffffffffffffffffff1663f83ccc2d846040518263ffffffff167c01000000000000000000000000000000000000000000000000000000000281526004018080602001828103825283818151815260200191508051906020019080838360005b83811015611fcb578082015181840152602081019050611fb0565b50505050905090810190601f168015611ff85780820380516001836020036101000a031916815260200191505b5092505050600060405180830381600087803b15801561201757600080fd5b505af115801561202b573d6000803e3d6000fd5b505050506040513d6000823e3d601f19601f82011682018060405250604081101561205557600080fd5b81019080805164010000000081111561206d57600080fd5b8281019050602081018481111561208357600080fd5b81518560018202830111640100000000821117156120a057600080fd5b50509291906020018051906020019092919050505080925081935050509150915600a165627a7a7230582009f4e756e63de0aa6c167bd16828abde43f9a32f6d42dff5ab0320408bef89720029608060405234801561001057600080fd5b5060405160208061343383398101806040528101908080519060200190929190505050336000806101000a81548173ffffffffffffffffffffffffffffffffffffffff021916908373ffffffffffffffffffffffffffffffffffffffff16021790555060018060003373ffffffffffffffffffffffffffffffffffffffff1673ffffffffffffffffffffffffffffffffffffffff16815260200190815260200160002060006101000a81548160ff021916908315150217905550336000806101000a81548173ffffffffffffffffffffffffffffffffffffffff021916908373ffffffffffffffffffffffffffffffffffffffff16021790555080600260006101000a81548173ffffffffffffffffffffffffffffffffffffffff021916908373ffffffffffffffffffffffffffffffffffffffff160217905550506132d88061015b6000396000f3006080604052600436106100a4576000357c0100000000000000000000000000000000000000000000000000000000900463ffffffff1680636fd62bfe146100a95780638da5cb5b146101675780638f32d59b146101be57806393cd4526146101ed578063a5709b7b1461035b578063b44fcd8114610480578063cbb873f7146106ad578063cd5286d014610901578063da2824a814610a4f578063f83ccc2d14610ad2575b600080fd5b3480156100b557600080fd5b50610110600480360381019080803590602001908201803590602001908080601f0160208091040260200160405190810160405280939291908181526020018383808284378201915050505050509192919290505050610bbb565b6040518080602001828103825283818151815260200191508051906020019060200280838360005b83811015610153578082015181840152602081019050610138565b505050509050019250505060405180910390f35b34801561017357600080fd5b5061017c610d84565b604051808273ffffffffffffffffffffffffffffffffffffffff1673ffffffffffffffffffffffffffffffffffffffff16815260200191505060405180910390f35b3480156101ca57600080fd5b506101d3610dad565b604051808215151515815260200191505060405180910390f35b3480156101f957600080fd5b506102e0600480360381019080803590602001908201803590602001908080601f0160208091040260200160405190810160405280939291908181526020018383808284378201915050505050509192919290803590602001908201803590602001908080601f0160208091040260200160405190810160405280939291908181526020018383808284378201915050505050509192919290803590602001908201803590602001908080601f0160208091040260200160405190810160405280939291908181526020018383808284378201915050505050509192919290505050610e04565b6040518080602001828103825283818151815260200191508051906020019080838360005b83811015610320578082015181840152602081019050610305565b50505050905090810190601f16801561034d5780820380516001836020036101000a031916815260200191505b509250505060405180910390f35b34801561036757600080fd5b50610405600480360381019080803590602001908201803590602001908080601f0160208091040260200160405190810160405280939291908181526020018383808284378201915050505050509192919290803590602001908201803590602001908080602002602001604051908101604052809392919081815260200183836020028082843782019150505050505091929192905050506113ce565b6040518080602001828103825283818151815260200191508051906020019080838360005b8381101561044557808201518184015260208101905061042a565b50505050905090810190601f1680156104725780820380516001836020036101000a031916815260200191505b509250505060405180910390f35b34801561048c57600080fd5b506104e7600480360381019080803590602001908201803590602001908080601f016020809104026020016040519081016040528093929190818152602001838380828437820191505050505050919291929050505061160b565b604051808060200180602001806020018060200186815260200185810385528a818151815260200191508051906020019080838360005b8381101561053957808201518184015260208101905061051e565b50505050905090810190601f1680156105665780820380516001836020036101000a031916815260200191505b50858103845289818151815260200191508051906020019080838360005b8381101561059f578082015181840152602081019050610584565b50505050905090810190601f1680156105cc5780820380516001836020036101000a031916815260200191505b50858103835288818151815260200191508051906020019080838360005b838110156106055780820151818401526020810190506105ea565b50505050905090810190601f1680156106325780820380516001836020036101000a031916815260200191505b50858103825287818151815260200191508051906020019080838360005b8381101561066b578082015181840152602081019050610650565b50505050905090810190601f1680156106985780820380516001836020036101000a031916815260200191505b50995050505050505050505060405180910390f35b3480156106b957600080fd5b50610886600480360381019080803590602001908201803590602001908080601f0160208091040260200160405190810160405280939291908181526020018383808284378201915050505050509192919290803590602001908201803590602001908080601f0160208091040260200160405190810160405280939291908181526020018383808284378201915050505050509192919290803590602001908201803590602001908080601f0160208091040260200160405190810160405280939291908181526020018383808284378201915050505050509192919290803590602001908201803590602001908080601f0160208091040260200160405190810160405280939291908181526020018383808284378201915050505050509192919290803590602001908201803590602001908080601f016020809104026020016040519081016040528093929190818152602001838380828437820191505050505050919291929080359060200190929190803590602001908201803590602001908080601f016020809104026020016040519081016040528093929190818152602001838380828437820191505050505050919291929080359060200190929190505050611e90565b6040518080602001828103825283818151815260200191508051906020019080838360005b838110156108c65780820151818401526020810190506108ab565b50505050905090810190601f1680156108f35780820380516001836020036101000a031916815260200191505b509250505060405180910390f35b34801561090d57600080fd5b50610968600480360381019080803590602001908201803590602001908080601f0160208091040260200160405190810160405280939291908181526020018383808284378201915050505050509192919290505050612a68565b604051808060200180602001838103835285818151815260200191508051906020019080838360005b838110156109ac578082015181840152602081019050610991565b50505050905090810190601f1680156109d95780820380516001836020036101000a031916815260200191505b50838103825284818151815260200191508051906020019080838360005b83811015610a125780820151818401526020810190506109f7565b50505050905090810190601f168015610a3f5780820380516001836020036101000a031916815260200191505b5094505050505060405180910390f35b348015610a5b57600080fd5b50610a90600480360381019080803573ffffffffffffffffffffffffffffffffffffffff169060200190929190505050612df4565b604051808273ffffffffffffffffffffffffffffffffffffffff1673ffffffffffffffffffffffffffffffffffffffff16815260200191505060405180910390f35b348015610ade57600080fd5b50610b39600480360381019080803590602001908201803590602001908080601f0160208091040260200160405190810160405280939291908181526020018383808284378201915050505050509192919290505050612f75565b6040518080602001838152602001828103825284818151815260200191508051906020019080838360005b83811015610b7f578082015181840152602081019050610b64565b50505050905090810190601f168015610bac5780820380516001836020036101000a031916815260200191505b50935050505060405180910390f35b6060600260009054906101000a900473ffffffffffffffffffffffffffffffffffffffff1673ffffffffffffffffffffffffffffffffffffffff1663e5c52730836040518263ffffffff167c0100000000000000000000000000000000000000000000000000000000028152600401808060200180602001838103835284818151815260200191508051906020019080838360005b83811015610c6b578082015181840152602081019050610c50565b50505050905090810190601f168015610c985780820380516001836020036101000a031916815260200191505b50838103825260068152602001807f64696765737400000000000000000000000000000000000000000000000000008152506020019350505050600060405180830381600087803b158015610cec57600080fd5b505af1158015610d00573d6000803e3d6000fd5b505050506040513d6000823e3d601f19601f820116820180604052506020811015610d2a57600080fd5b810190808051640100000000811115610d4257600080fd5b82810190506020810184811115610d5857600080fd5b8151856020820283011164010000000082111715610d7557600080fd5b50509291905050509050919050565b60008060009054906101000a900473ffffffffffffffffffffffffffffffffffffffff16905090565b60008060009054906101000a900473ffffffffffffffffffffffffffffffffffffffff1673ffffffffffffffffffffffffffffffffffffffff163373ffffffffffffffffffffffffffffffffffffffff1614905090565b6060610e0e610dad565b1515610ea8576040517f08c379a000000000000000000000000000000000000000000000000000000000815260040180806020018281038252602b8152602001807f53656e646572206973206e6f7420617574686f72697a65642077697468206f7781526020017f6e657220706f6c6963792e00000000000000000000000000000000000000000081525060400191505060405180910390fd5b600260009054906101000a900473ffffffffffffffffffffffffffffffffffffffff1673ffffffffffffffffffffffffffffffffffffffff1663d121739785866040518363ffffffff167c010000000000000000000000000000000000000000000000000000000002815260040180806020018060200180602001848103845286818151815260200191508051906020019080838360005b83811015610f5b578082015181840152602081019050610f40565b50505050905090810190601f168015610f885780820380516001836020036101000a031916815260200191505b50848103835260048152602001807f6861736800000000000000000000000000000000000000000000000000000000815250602001848103825285818151815260200191508051906020019080838360005b83811015610ff5578082015181840152602081019050610fda565b50505050905090810190601f1680156110225780820380516001836020036101000a031916815260200191505b5095505050505050600060405180830381600087803b15801561104457600080fd5b505af1158015611058573d6000803e3d6000fd5b50505050600260009054906101000a900473ffffffffffffffffffffffffffffffffffffffff1673ffffffffffffffffffffffffffffffffffffffff1663d121739785856040518363ffffffff167c010000000000000000000000000000000000000000000000000000000002815260040180806020018060200180602001848103845286818151815260200191508051906020019080838360005b8381101561110f5780820151818401526020810190506110f4565b50505050905090810190601f16801561113c5780820380516001836020036101000a031916815260200191505b508481038352600c8152602001807f626c6f636b5f6e756d6265720000000000000000000000000000000000000000815250602001848103825285818151815260200191508051906020019080838360005b838110156111a957808201518184015260208101905061118e565b50505050905090810190601f1680156111d65780820380516001836020036101000a031916815260200191505b5095505050505050600060405180830381600087803b1580156111f857600080fd5b505af115801561120c573d6000803e3d6000fd5b50505050600260009054906101000a900473ffffffffffffffffffffffffffffffffffffffff1673ffffffffffffffffffffffffffffffffffffffff1663d121739785846040518363ffffffff167c010000000000000000000000000000000000000000000000000000000002815260040180806020018060200180602001848103845286818151815260200191508051906020019080838360005b838110156112c35780820151818401526020810190506112a8565b50505050905090810190601f1680156112f05780820380516001836020036101000a031916815260200191505b508481038352600b8152602001807f706c6174666f726d5f6964000000000000000000000000000000000000000000815250602001848103825285818151815260200191508051906020019080838360005b8381101561135d578082015181840152602081019050611342565b50505050905090810190601f16801561138a5780820380516001836020036101000a031916815260200191505b5095505050505050600060405180830381600087803b1580156113ac57600080fd5b505af11580156113c0573d6000803e3d6000fd5b505050508390509392505050565b60606113d8610dad565b1515611472576040517f08c379a000000000000000000000000000000000000000000000000000000000815260040180806020018281038252602b8152602001807f53656e646572206973206e6f7420617574686f72697a65642077697468206f7781526020017f6e657220706f6c6963792e00000000000000000000000000000000000000000081525060400191505060405180910390fd5b600260009054906101000a900473ffffffffffffffffffffffffffffffffffffffff1673ffffffffffffffffffffffffffffffffffffffff1663c821b75684846040518363ffffffff167c010000000000000000000000000000000000000000000000000000000002815260040180806020018060200180602001848103845286818151815260200191508051906020019080838360005b8381101561152557808201518184015260208101905061150a565b50505050905090810190601f1680156115525780820380516001836020036101000a031916815260200191505b50848103835260068152602001807f6469676573740000000000000000000000000000000000000000000000000000815250602001848103825285818151815260200191508051906020019060200280838360005b838110156115c25780820151818401526020810190506115a7565b5050505090500195505050505050600060405180830381600087803b1580156115ea57600080fd5b505af11580156115fe573d6000803e3d6000fd5b5050505082905092915050565b6060806060806000600260009054906101000a900473ffffffffffffffffffffffffffffffffffffffff1673ffffffffffffffffffffffffffffffffffffffff16633f7690ca876040518263ffffffff167c0100000000000000000000000000000000000000000000000000000000028152600401808060200180602001838103835284818151815260200191508051906020019080838360005b838110156116c15780820151818401526020810190506116a6565b50505050905090810190601f1680156116ee5780820380516001836020036101000a031916815260200191505b50838103825260058152602001807f7469746c650000000000000000000000000000000000000000000000000000008152506020019350505050600060405180830381600087803b15801561174257600080fd5b505af1158015611756573d6000803e3d6000fd5b505050506040513d6000823e3d601f19601f82011682018060405250602081101561178057600080fd5b81019080805164010000000081111561179857600080fd5b828101905060208101848111156117ae57600080fd5b81518560018202830111640100000000821117156117cb57600080fd5b50509291905050509450600260009054906101000a900473ffffffffffffffffffffffffffffffffffffffff1673ffffffffffffffffffffffffffffffffffffffff16633f7690ca876040518263ffffffff167c0100000000000000000000000000000000000000000000000000000000028152600401808060200180602001838103835284818151815260200191508051906020019080838360005b83811015611883578082015181840152602081019050611868565b50505050905090810190601f1680156118b05780820380516001836020036101000a031916815260200191505b50838103825260068152602001807f617574686f7200000000000000000000000000000000000000000000000000008152506020019350505050600060405180830381600087803b15801561190457600080fd5b505af1158015611918573d6000803e3d6000fd5b505050506040513d6000823e3d601f19601f82011682018060405250602081101561194257600080fd5b81019080805164010000000081111561195a57600080fd5b8281019050602081018481111561197057600080fd5b815185600182028301116401000000008211171561198d57600080fd5b50509291905050509350600260009054906101000a900473ffffffffffffffffffffffffffffffffffffffff1673ffffffffffffffffffffffffffffffffffffffff16633f7690ca876040518263ffffffff167c0100000000000000000000000000000000000000000000000000000000028152600401808060200180602001838103835284818151815260200191508051906020019080838360005b83811015611a45578082015181840152602081019050611a2a565b50505050905090810190601f168015611a725780820380516001836020036101000a031916815260200191505b50838103825260048152602001807f6c616e67000000000000000000000000000000000000000000000000000000008152506020019350505050600060405180830381600087803b158015611ac657600080fd5b505af1158015611ada573d6000803e3d6000fd5b505050506040513d6000823e3d601f19601f820116820180604052506020811015611b0457600080fd5b810190808051640100000000811115611b1c57600080fd5b82810190506020810184811115611b3257600080fd5b8151856001820283011164010000000082111715611b4f57600080fd5b50509291905050509250600260009054906101000a900473ffffffffffffffffffffffffffffffffffffffff1673ffffffffffffffffffffffffffffffffffffffff16633f7690ca876040518263ffffffff167c0100000000000000000000000000000000000000000000000000000000028152600401808060200180602001838103835284818151815260200191508051906020019080838360005b83811015611c07578082015181840152602081019050611bec565b50505050905090810190601f168015611c345780820380516001836020036101000a031916815260200191505b508381038252600c8152602001807f7075626c69736865725f696400000000000000000000000000000000000000008152506020019350505050600060405180830381600087803b158015611c8857600080fd5b505af1158015611c9c573d6000803e3d6000fd5b505050506040513d6000823e3d601f19601f820116820180604052506020811015611cc657600080fd5b810190808051640100000000811115611cde57600080fd5b82810190506020810184811115611cf457600080fd5b8151856001820283011164010000000082111715611d1157600080fd5b50509291905050509150600260009054906101000a900473ffffffffffffffffffffffffffffffffffffffff1673ffffffffffffffffffffffffffffffffffffffff16635df6d3cc876040518263ffffffff167c0100000000000000000000000000000000000000000000000000000000028152600401808060200180602001838103835284818151815260200191508051906020019080838360005b83811015611dc9578082015181840152602081019050611dae565b50505050905090810190601f168015611df65780820380516001836020036101000a031916815260200191505b508381038252600c8152602001807f7075626c6973685f6461746500000000000000000000000000000000000000008152506020019350505050602060405180830381600087803b158015611e4a57600080fd5b505af1158015611e5e573d6000803e3d6000fd5b505050506040513d6020811015611e7457600080fd5b8101908080519060200190929190505050905091939590929450565b6060611e9a610dad565b1515611f34576040517f08c379a000000000000000000000000000000000000000000000000000000000815260040180806020018281038252602b8152602001807f53656e646572206973206e6f7420617574686f72697a65642077697468206f7781526020017f6e657220706f6c6963792e00000000000000000000000000000000000000000081525060400191505060405180910390fd5b889050600260009054906101000a900473ffffffffffffffffffffffffffffffffffffffff1673ffffffffffffffffffffffffffffffffffffffff1663d12173978a8a6040518363ffffffff167c010000000000000000000000000000000000000000000000000000000002815260040180806020018060200180602001848103845286818151815260200191508051906020019080838360005b83811015611fea578082015181840152602081019050611fcf565b50505050905090810190601f1680156120175780820380516001836020036101000a031916815260200191505b50848103835260058152602001807f7469746c65000000000000000000000000000000000000000000000000000000815250602001848103825285818151815260200191508051906020019080838360005b83811015612084578082015181840152602081019050612069565b50505050905090810190601f1680156120b15780820380516001836020036101000a031916815260200191505b5095505050505050600060405180830381600087803b1580156120d357600080fd5b505af11580156120e7573d6000803e3d6000fd5b50505050600260009054906101000a900473ffffffffffffffffffffffffffffffffffffffff1673ffffffffffffffffffffffffffffffffffffffff1663d12173978a896040518363ffffffff167c010000000000000000000000000000000000000000000000000000000002815260040180806020018060200180602001848103845286818151815260200191508051906020019080838360005b8381101561219e578082015181840152602081019050612183565b50505050905090810190601f1680156121cb5780820380516001836020036101000a031916815260200191505b50848103835260068152602001807f617574686f720000000000000000000000000000000000000000000000000000815250602001848103825285818151815260200191508051906020019080838360005b8381101561223857808201518184015260208101905061221d565b50505050905090810190601f1680156122655780820380516001836020036101000a031916815260200191505b5095505050505050600060405180830381600087803b15801561228757600080fd5b505af115801561229b573d6000803e3d6000fd5b50505050600260009054906101000a900473ffffffffffffffffffffffffffffffffffffffff1673ffffffffffffffffffffffffffffffffffffffff1663d12173978a886040518363ffffffff167c010000000000000000000000000000000000000000000000000000000002815260040180806020018060200180602001848103845286818151815260200191508051906020019080838360005b83811015612352578082015181840152602081019050612337565b50505050905090810190601f16801561237f5780820380516001836020036101000a031916815260200191505b50848103835260068152602001807f6f726967696e0000000000000000000000000000000000000000000000000000815250602001848103825285818151815260200191508051906020019080838360005b838110156123ec5780820151818401526020810190506123d1565b50505050905090810190601f1680156124195780820380516001836020036101000a031916815260200191505b5095505050505050600060405180830381600087803b15801561243b57600080fd5b505af115801561244f573d6000803e3d6000fd5b50505050600260009054906101000a900473ffffffffffffffffffffffffffffffffffffffff1673ffffffffffffffffffffffffffffffffffffffff1663d12173978a876040518363ffffffff167c010000000000000000000000000000000000000000000000000000000002815260040180806020018060200180602001848103845286818151815260200191508051906020019080838360005b838110156125065780820151818401526020810190506124eb565b50505050905090810190601f1680156125335780820380516001836020036101000a031916815260200191505b50848103835260048152602001807f6c616e6700000000000000000000000000000000000000000000000000000000815250602001848103825285818151815260200191508051906020019080838360005b838110156125a0578082015181840152602081019050612585565b50505050905090810190601f1680156125cd5780820380516001836020036101000a031916815260200191505b5095505050505050600060405180830381600087803b1580156125ef57600080fd5b505af1158015612603573d6000803e3d6000fd5b50505050600260009054906101000a900473ffffffffffffffffffffffffffffffffffffffff1673ffffffffffffffffffffffffffffffffffffffff166356b44b2c8a866040518363ffffffff167c0100000000000000000000000000000000000000000000000000000000028152600401808060200180602001848152602001838103835285818151815260200191508051906020019080838360005b838110156126bc5780820151818401526020810190506126a1565b50505050905090810190601f1680156126e95780820380516001836020036101000a031916815260200191505b50838103825260098152602001807f70617065726261636b0000000000000000000000000000000000000000000000815250602001945050505050600060405180830381600087803b15801561273e57600080fd5b505af1158015612752573d6000803e3d6000fd5b50505050600260009054906101000a900473ffffffffffffffffffffffffffffffffffffffff1673ffffffffffffffffffffffffffffffffffffffff1663d12173978a856040518363ffffffff167c010000000000000000000000000000000000000000000000000000000002815260040180806020018060200180602001848103845286818151815260200191508051906020019080838360005b838110156128095780820151818401526020810190506127ee565b50505050905090810190601f1680156128365780820380516001836020036101000a031916815260200191505b508481038352600c8152602001807f7075626c69736865725f69640000000000000000000000000000000000000000815250602001848103825285818151815260200191508051906020019080838360005b838110156128a3578082015181840152602081019050612888565b50505050905090810190601f1680156128d05780820380516001836020036101000a031916815260200191505b5095505050505050600060405180830381600087803b1580156128f257600080fd5b505af1158015612906573d6000803e3d6000fd5b50505050600260009054906101000a900473ffffffffffffffffffffffffffffffffffffffff1673ffffffffffffffffffffffffffffffffffffffff166356b44b2c8a846040518363ffffffff167c0100000000000000000000000000000000000000000000000000000000028152600401808060200180602001848152602001838103835285818151815260200191508051906020019080838360005b838110156129bf5780820151818401526020810190506129a4565b50505050905090810190601f1680156129ec5780820380516001836020036101000a031916815260200191505b508381038252600c8152602001807f7075626c6973685f646174650000000000000000000000000000000000000000815250602001945050505050600060405180830381600087803b158015612a4157600080fd5b505af1158015612a55573d6000803e3d6000fd5b5050505080905098975050505050505050565b606080600260009054906101000a900473ffffffffffffffffffffffffffffffffffffffff1673ffffffffffffffffffffffffffffffffffffffff16633f7690ca846040518263ffffffff167c0100000000000000000000000000000000000000000000000000000000028152600401808060200180602001838103835284818151815260200191508051906020019080838360005b83811015612b19578082015181840152602081019050612afe565b50505050905090810190601f168015612b465780820380516001836020036101000a031916815260200191505b508381038252600c8152602001807f626c6f636b5f6e756d62657200000000000000000000000000000000000000008152506020019350505050600060405180830381600087803b158015612b9a57600080fd5b505af1158015612bae573d6000803e3d6000fd5b505050506040513d6000823e3d601f19601f820116820180604052506020811015612bd857600080fd5b810190808051640100000000811115612bf057600080fd5b82810190506020810184811115612c0657600080fd5b8151856001820283011164010000000082111715612c2357600080fd5b50509291905050509150600260009054906101000a900473ffffffffffffffffffffffffffffffffffffffff1673ffffffffffffffffffffffffffffffffffffffff16633f7690ca846040518263ffffffff167c0100000000000000000000000000000000000000000000000000000000028152600401808060200180602001838103835284818151815260200191508051906020019080838360005b83811015612cdb578082015181840152602081019050612cc0565b50505050905090810190601f168015612d085780820380516001836020036101000a031916815260200191505b508381038252600b8152602001807f706c6174666f726d5f69640000000000000000000000000000000000000000008152506020019350505050600060405180830381600087803b158015612d5c57600080fd5b505af1158015612d70573d6000803e3d6000fd5b505050506040513d6000823e3d601f19601f820116820180604052506020811015612d9a57600080fd5b810190808051640100000000811115612db257600080fd5b82810190506020810184811115612dc857600080fd5b8151856001820283011164010000000082111715612de557600080fd5b50509291905050509050915091565b6000612dfe610dad565b1515612e98576040517f08c379a000000000000000000000000000000000000000000000000000000000815260040180806020018281038252602b8152602001807f53656e646572206973206e6f7420617574686f72697a65642077697468206f7781526020017f6e657220706f6c6963792e00000000000000000000000000000000000000000081525060400191505060405180910390fd5b600260009054906101000a900473ffffffffffffffffffffffffffffffffffffffff1673ffffffffffffffffffffffffffffffffffffffff1663da2824a8836040518263ffffffff167c0100000000000000000000000000000000000000000000000000000000028152600401808273ffffffffffffffffffffffffffffffffffffffff1673ffffffffffffffffffffffffffffffffffffffff168152602001915050600060405180830381600087803b158015612f5557600080fd5b505af1158015612f69573d6000803e3d6000fd5b50505050819050919050565b60606000600260009054906101000a900473ffffffffffffffffffffffffffffffffffffffff1673ffffffffffffffffffffffffffffffffffffffff16633f7690ca846040518263ffffffff167c0100000000000000000000000000000000000000000000000000000000028152600401808060200180602001838103835284818151815260200191508051906020019080838360005b8381101561302757808201518184015260208101905061300c565b50505050905090810190601f1680156130545780820380516001836020036101000a031916815260200191505b50838103825260068152602001807f6f726967696e00000000000000000000000000000000000000000000000000008152506020019350505050600060405180830381600087803b1580156130a857600080fd5b505af11580156130bc573d6000803e3d6000fd5b505050506040513d6000823e3d601f19601f8201168201806040525060208110156130e657600080fd5b8101908080516401000000008111156130fe57600080fd5b8281019050602081018481111561311457600080fd5b815185600182028301116401000000008211171561313157600080fd5b50509291905050509150600260009054906101000a900473ffffffffffffffffffffffffffffffffffffffff1673ffffffffffffffffffffffffffffffffffffffff16635df6d3cc846040518263ffffffff167c0100000000000000000000000000000000000000000000000000000000028152600401808060200180602001838103835284818151815260200191508051906020019080838360005b838110156131e95780820151818401526020810190506131ce565b50505050905090810190601f1680156132165780820380516001836020036101000a031916815260200191505b50838103825260098152602001807f70617065726261636b00000000000000000000000000000000000000000000008152506020019350505050602060405180830381600087803b15801561326a57600080fd5b505af115801561327e573d6000803e3d6000fd5b505050506040513d602081101561329457600080fd5b810190808051906020019092919050505090509150915600a165627a7a723058203d3cc7345ced9fcbcfec75f053b7fc5dcd4f2f0fe411f737a9f563cd3642faa60029",
  "source": "pragma solidity ^0.4.24;\n\nimport \"./API.sol\";\nimport \"../controller/MetaDataController.sol\";\nimport \"../security/AccessRestriction.sol\";\nimport \"../common/Event.sol\";\n\ncontract APIv102 is API ,AccessRestriction,Event {\n\n    string constant _version = \"v1.0\";\n\n    address _storageAddress;\n\n    MetaDataController _metaDataController;\n\n    constructor (address storageAddress) public {\n        _owner = msg.sender;\n        _metaDataController = new MetaDataController(storageAddress);\n        _storageAddress = storageAddress;\n    }\n\n    function getDataControllerAddress() public view returns (address) {\n        return address(_metaDataController);\n    }\n\n    function getVersion() public view returns (string) {\n        return _version;\n    }\n\n    function addAsset(string h, string blockNo, string platformID) public onlyWriter returns (string) {\n\n        string memory returnKey;\n        returnKey = _metaDataController.addAsset(h, blockNo, platformID);\n\n        return returnKey;\n\n    }\n\n    function getAsset(string h) public view returns(string blockNo,string platformID) {\n        (blockNo,platformID) = _metaDataController.getAsset(h);\n    }\n\n    function addWriter(address newWriter) public onlyOwner {\n        writers[newWriter] = true;\n    }\n\n    function addBook(string newKey,\n                string title,\n                string author,\n                string origin,\n                string lang,\n                uint256 paperback,\n                string publisherId,\n                uint256 publishDate\n                ) public onlyBy(_owner) returns(string) {\n        string memory returnKey;\n        returnKey = _metaDataController.addBook(newKey,title,author,origin,lang,paperback,publisherId,publishDate);\n        // emit OutputBytes32(\"returnKey\",key);\n\n        return returnKey;\n    }\n\n    function uploadDigest(string newKey,uint256[] digest) public onlyBy(_owner) returns(string) {\n        string memory returnKey;\n        returnKey = _metaDataController.uploadDigest(newKey,digest);\n        return returnKey;\n    }\n\n    function downloadDigest(string newKey) public view returns (uint256[] digest) {\n        digest = _metaDataController.downloadDigest(newKey);\n    }\n\n    function getBook(string key) public view returns (string title,string author,string lang,string publisherId,uint256 publishDate) {\n\n        (title,author,lang,publisherId,publishDate) = _metaDataController.getBookByKey(key);\n\n        //  return (title,author,lang,publisherId,publishDate);\n    }\n\n    function getAdditionalBookData(string key) public view returns(string origin,uint256 paperback) {\n        (origin,paperback) = _metaDataController.getAdditionalBookData(key);\n    }\n}",
  "sourcePath": "/Users/zatan007/go/src/github.com/thesixnetwork/sixecho-server/contract/contracts/service/APIv102.sol",
  "compiler": {
    "name": "solc",
    "version": "0.4.24+commit.e67f0147.Emscripten.clang"
  },
  "schemaVersion": "3.0.21",
  "updatedAt": "2020-01-20T10:00:37.308Z",
  "networkType": "ethereum",
  "devdoc": {
    "methods": {
      "owner()": {
        "return": "the address of the owner."
      }
    }
  },
  "userdoc": {
    "methods": {}
  }
}