{
  "contractName": "EchoApp",
  "abi": [
    {
      "constant": true,
      "inputs": [],
      "name": "owner",
      "outputs": [
        {
          "name": "",
          "type": "address"
        }
      ],
      "payable": false,
      "stateMutability": "view",
      "type": "function"
    },
    {
      "constant": true,
      "inputs": [],
      "name": "isOwner",
      "outputs": [
        {
          "name": "",
          "type": "bool"
        }
      ],
      "payable": false,
      "stateMutability": "view",
      "type": "function"
    },
    {
      "inputs": [],
      "payable": false,
      "stateMutability": "nonpayable",
      "type": "constructor"
    },
    {
      "anonymous": false,
      "inputs": [
        {
          "indexed": false,
          "name": "key",
          "type": "string"
        },
        {
          "indexed": false,
          "name": "value",
          "type": "string"
        }
      ],
      "name": "OutputString",
      "type": "event"
    },
    {
      "anonymous": false,
      "inputs": [
        {
          "indexed": false,
          "name": "key",
          "type": "string"
        },
        {
          "indexed": false,
          "name": "value",
          "type": "address"
        }
      ],
      "name": "OutputAddress",
      "type": "event"
    },
    {
      "anonymous": false,
      "inputs": [
        {
          "indexed": false,
          "name": "key",
          "type": "string"
        },
        {
          "indexed": false,
          "name": "value",
          "type": "bytes32"
        }
      ],
      "name": "OutputBytes32",
      "type": "event"
    },
    {
      "anonymous": false,
      "inputs": [
        {
          "indexed": false,
          "name": "key",
          "type": "string"
        },
        {
          "indexed": false,
          "name": "value",
          "type": "uint256"
        }
      ],
      "name": "OutputUint256",
      "type": "event"
    },
    {
      "constant": false,
      "inputs": [
        {
          "name": "addressStorage",
          "type": "address"
        }
      ],
      "name": "setUpStorage",
      "outputs": [],
      "payable": false,
      "stateMutability": "nonpayable",
      "type": "function"
    },
    {
      "constant": false,
      "inputs": [
        {
          "name": "apiName",
          "type": "string"
        },
        {
          "name": "apiAddress",
          "type": "address"
        }
      ],
      "name": "addNewAPI",
      "outputs": [
        {
          "name": "",
          "type": "string"
        }
      ],
      "payable": false,
      "stateMutability": "nonpayable",
      "type": "function"
    },
    {
      "constant": true,
      "inputs": [],
      "name": "getLatestAPIAddress",
      "outputs": [
        {
          "name": "",
          "type": "address"
        }
      ],
      "payable": false,
      "stateMutability": "view",
      "type": "function"
    },
    {
      "constant": true,
      "inputs": [
        {
          "name": "apiName",
          "type": "string"
        }
      ],
      "name": "getAPIAddressByName",
      "outputs": [
        {
          "name": "",
          "type": "address"
        }
      ],
      "payable": false,
      "stateMutability": "view",
      "type": "function"
    }
  ],
  "bytecode": "0x608060405234801561001057600080fd5b50336000806101000a81548173ffffffffffffffffffffffffffffffffffffffff021916908373ffffffffffffffffffffffffffffffffffffffff16021790555060018060003373ffffffffffffffffffffffffffffffffffffffff1673ffffffffffffffffffffffffffffffffffffffff16815260200190815260200160002060006101000a81548160ff021916908315150217905550336000806101000a81548173ffffffffffffffffffffffffffffffffffffffff021916908373ffffffffffffffffffffffffffffffffffffffff16021790555061092c806100f76000396000f300608060405260043610610078576000357c0100000000000000000000000000000000000000000000000000000000900463ffffffff16806302aa67de1461007d5780638da5cb5b146100c05780638f32d59b14610117578063c4f1841214610146578063cf9f89c8146101ef578063cfd488fd146102f1575b600080fd5b34801561008957600080fd5b506100be600480360381019080803573ffffffffffffffffffffffffffffffffffffffff169060200190929190505050610348565b005b3480156100cc57600080fd5b506100d5610452565b604051808273ffffffffffffffffffffffffffffffffffffffff1673ffffffffffffffffffffffffffffffffffffffff16815260200191505060405180910390f35b34801561012357600080fd5b5061012c61047b565b604051808215151515815260200191505060405180910390f35b34801561015257600080fd5b506101ad600480360381019080803590602001908201803590602001908080601f01602080910402602001604051908101604052809392919081815260200183838082843782019150505050505091929192905050506104d2565b604051808273ffffffffffffffffffffffffffffffffffffffff1673ffffffffffffffffffffffffffffffffffffffff16815260200191505060405180910390f35b3480156101fb57600080fd5b50610276600480360381019080803590602001908201803590602001908080601f0160208091040260200160405190810160405280939291908181526020018383808284378201915050505050509192919290803573ffffffffffffffffffffffffffffffffffffffff169060200190929190505050610567565b6040518080602001828103825283818151815260200191508051906020019080838360005b838110156102b657808201518184015260208101905061029b565b50505050905090810190601f1680156102e35780820380516001836020036101000a031916815260200191505b509250505060405180910390f35b3480156102fd57600080fd5b506103066108d6565b604051808273ffffffffffffffffffffffffffffffffffffffff1673ffffffffffffffffffffffffffffffffffffffff16815260200191505060405180910390f35b6000809054906101000a900473ffffffffffffffffffffffffffffffffffffffff168073ffffffffffffffffffffffffffffffffffffffff163373ffffffffffffffffffffffffffffffffffffffff1614151561040d576040517f08c379a00000000000000000000000000000000000000000000000000000000081526004018080602001828103825260168152602001807f53656e646572206e6f7420617574686f72697a65642e0000000000000000000081525060200191505060405180910390fd5b81600260006101000a81548173ffffffffffffffffffffffffffffffffffffffff021916908373ffffffffffffffffffffffffffffffffffffffff1602179055505050565b60008060009054906101000a900473ffffffffffffffffffffffffffffffffffffffff16905090565b60008060009054906101000a900473ffffffffffffffffffffffffffffffffffffffff1673ffffffffffffffffffffffffffffffffffffffff163373ffffffffffffffffffffffffffffffffffffffff1614905090565b60006003826040518082805190602001908083835b60208310151561050c57805182526020820191506020810190506020830392506104e7565b6001836020036101000a038019825116818451168082178552505050505050905001915050908152602001604051809103902060009054906101000a900473ffffffffffffffffffffffffffffffffffffffff169050919050565b60606000806000809054906101000a900473ffffffffffffffffffffffffffffffffffffffff168073ffffffffffffffffffffffffffffffffffffffff163373ffffffffffffffffffffffffffffffffffffffff16141515610631576040517f08c379a00000000000000000000000000000000000000000000000000000000081526004018080602001828103825260168152602001807f53656e646572206e6f7420617574686f72697a65642e0000000000000000000081525060200191505060405180910390fd5b8492508273ffffffffffffffffffffffffffffffffffffffff16637b09db4c6040518163ffffffff167c0100000000000000000000000000000000000000000000000000000000028152600401602060405180830381600087803b15801561069857600080fd5b505af11580156106ac573d6000803e3d6000fd5b505050506040513d60208110156106c257600080fd5b81019080805190602001909291905050509150600260009054906101000a900473ffffffffffffffffffffffffffffffffffffffff1673ffffffffffffffffffffffffffffffffffffffff1663da2824a8836040518263ffffffff167c0100000000000000000000000000000000000000000000000000000000028152600401808273ffffffffffffffffffffffffffffffffffffffff1673ffffffffffffffffffffffffffffffffffffffff168152602001915050600060405180830381600087803b15801561079257600080fd5b505af11580156107a6573d6000803e3d6000fd5b50505050826003876040518082805190602001908083835b6020831015156107e357805182526020820191506020810190506020830392506107be565b6001836020036101000a038019825116818451168082178552505050505050905001915050908152602001604051809103902060006101000a81548173ffffffffffffffffffffffffffffffffffffffff021916908373ffffffffffffffffffffffffffffffffffffffff16021790555082600460006101000a81548173ffffffffffffffffffffffffffffffffffffffff021916908373ffffffffffffffffffffffffffffffffffffffff1602179055506040805190810160405280600281526020017f4f4b000000000000000000000000000000000000000000000000000000000000815250935050505092915050565b6000600460009054906101000a900473ffffffffffffffffffffffffffffffffffffffff169050905600a165627a7a723058203ef5699a2134a1f5eb6c85c4013c6e78f1c67722b5a804e8ae82e89456841ae70029",
  "source": "pragma solidity ^0.4.24;\n\nimport \"./persistence/Storage.sol\";\nimport \"./security/AccessRestriction.sol\";\nimport \"./service/API.sol\";\nimport \"./service/APIv100.sol\";\nimport \"./common/Event.sol\";\n\ncontract EchoApp is AccessRestriction ,Event{\n\n    Storage private _echoData;\n\n    mapping(string => API) apis;\n\n    API latest;\n\n    constructor() public  {\n        _owner = msg.sender;\n    }\n\n    function setUpStorage(address addressStorage) public onlyBy(_owner) {\n        _echoData = Storage(addressStorage);\n    }\n\n    // function switchApp(address newAppAddress) public onlyBy(_owner) {\n    //     // Change new owner of Storage\n    //     // Remove All Writers from Storage\n    // }\n\n    function addNewAPI(string apiName,address apiAddress) public onlyBy(_owner) returns (string) {\n        \n        API api = API(apiAddress);\n        // emit OutputString(\"API\",\"API Load OK\");\n\n        address controllerAddress = api.getDataControllerAddress();\n        // emit OutputAddress(\"Controller\",controllerAddress);\n        _echoData.addWriter(controllerAddress);\n        // apis.push(api);\n        apis[apiName] = api;\n        latest = api;\n\n        return \"OK\";\n    }\n\n    function getLatestAPIAddress() public view returns (address) {\n        return address(latest);\n    }\n\n    function getAPIAddressByName(string apiName) public view returns (address) {\n        return address(apis[apiName]);\n    }\n\n    // function initial() {\n    //     _echoData = new Storage(address(this));\n    //     emit OutputAddress(\"Storage address\",address(_echoData));\n\n    //     APIv100 apiv100 = new APIv100(address(_echoData));\n    //     emit OutputAddress(\"APIv100 address\",address(apiv100));\n    // }\n}",
  "sourcePath": "/Users/mar/Workspace/echo/sixecho-server/contract/contracts/EchoApp.sol",
  "compiler": {
    "name": "solc",
    "version": "0.4.26+commit.4563c3fc.Emscripten.clang"
  },
  "schemaVersion": "2.0.2",
  "updatedAt": "2019-07-23T07:05:58.223Z"
}