{
  "contractName": "MetaDataController",
  "abi": [
    {
      "constant": true,
      "inputs": [],
      "name": "owner",
      "outputs": [
        {
          "name": "",
          "type": "address"
        }
      ],
      "payable": false,
      "stateMutability": "view",
      "type": "function"
    },
    {
      "constant": true,
      "inputs": [],
      "name": "isOwner",
      "outputs": [
        {
          "name": "",
          "type": "bool"
        }
      ],
      "payable": false,
      "stateMutability": "view",
      "type": "function"
    },
    {
      "inputs": [
        {
          "name": "storageAddress",
          "type": "address"
        }
      ],
      "payable": false,
      "stateMutability": "nonpayable",
      "type": "constructor"
    },
    {
      "anonymous": false,
      "inputs": [
        {
          "indexed": false,
          "name": "key",
          "type": "string"
        },
        {
          "indexed": false,
          "name": "value",
          "type": "string"
        }
      ],
      "name": "OutputString",
      "type": "event"
    },
    {
      "anonymous": false,
      "inputs": [
        {
          "indexed": false,
          "name": "key",
          "type": "string"
        },
        {
          "indexed": false,
          "name": "value",
          "type": "address"
        }
      ],
      "name": "OutputAddress",
      "type": "event"
    },
    {
      "anonymous": false,
      "inputs": [
        {
          "indexed": false,
          "name": "key",
          "type": "string"
        },
        {
          "indexed": false,
          "name": "value",
          "type": "bytes32"
        }
      ],
      "name": "OutputBytes32",
      "type": "event"
    },
    {
      "anonymous": false,
      "inputs": [
        {
          "indexed": false,
          "name": "key",
          "type": "string"
        },
        {
          "indexed": false,
          "name": "value",
          "type": "uint256"
        }
      ],
      "name": "OutputUint256",
      "type": "event"
    },
    {
      "constant": false,
      "inputs": [
        {
          "name": "newKey",
          "type": "string"
        },
        {
          "name": "title",
          "type": "string"
        },
        {
          "name": "author",
          "type": "string"
        },
        {
          "name": "origin",
          "type": "string"
        },
        {
          "name": "lang",
          "type": "string"
        },
        {
          "name": "paperback",
          "type": "uint256"
        },
        {
          "name": "publisherId",
          "type": "string"
        },
        {
          "name": "publishDate",
          "type": "uint256"
        }
      ],
      "name": "addBook",
      "outputs": [
        {
          "name": "returnKey",
          "type": "string"
        }
      ],
      "payable": false,
      "stateMutability": "nonpayable",
      "type": "function"
    },
    {
      "constant": false,
      "inputs": [
        {
          "name": "newKey",
          "type": "string"
        },
        {
          "name": "digest",
          "type": "uint64[]"
        }
      ],
      "name": "uploadDigest",
      "outputs": [
        {
          "name": "returnKey",
          "type": "string"
        }
      ],
      "payable": false,
      "stateMutability": "nonpayable",
      "type": "function"
    },
    {
      "constant": true,
      "inputs": [
        {
          "name": "key",
          "type": "string"
        }
      ],
      "name": "getBookByKey",
      "outputs": [
        {
          "name": "title",
          "type": "string"
        },
        {
          "name": "author",
          "type": "string"
        },
        {
          "name": "lang",
          "type": "string"
        },
        {
          "name": "publisherId",
          "type": "string"
        },
        {
          "name": "publishDate",
          "type": "uint256"
        }
      ],
      "payable": false,
      "stateMutability": "view",
      "type": "function"
    },
    {
      "constant": true,
      "inputs": [
        {
          "name": "newKey",
          "type": "string"
        }
      ],
      "name": "downloadDigest",
      "outputs": [
        {
          "name": "digest",
          "type": "uint64[]"
        }
      ],
      "payable": false,
      "stateMutability": "view",
      "type": "function"
    },
    {
      "constant": true,
      "inputs": [
        {
          "name": "key",
          "type": "string"
        }
      ],
      "name": "getAdditionalBookData",
      "outputs": [
        {
          "name": "origin",
          "type": "string"
        },
        {
          "name": "paperback",
          "type": "uint256"
        }
      ],
      "payable": false,
      "stateMutability": "view",
      "type": "function"
    }
  ],
  "bytecode": "0x608060405234801561001057600080fd5b506040516020806125fc83398101806040528101908080519060200190929190505050336000806101000a81548173ffffffffffffffffffffffffffffffffffffffff021916908373ffffffffffffffffffffffffffffffffffffffff16021790555060018060003373ffffffffffffffffffffffffffffffffffffffff1673ffffffffffffffffffffffffffffffffffffffff16815260200190815260200160002060006101000a81548160ff021916908315150217905550336000806101000a81548173ffffffffffffffffffffffffffffffffffffffff021916908373ffffffffffffffffffffffffffffffffffffffff16021790555080600260006101000a81548173ffffffffffffffffffffffffffffffffffffffff021916908373ffffffffffffffffffffffffffffffffffffffff160217905550506124a18061015b6000396000f300608060405260043610610083576000357c0100000000000000000000000000000000000000000000000000000000900463ffffffff1680636fd62bfe1461008857806377722ed7146101465780638da5cb5b1461026b5780638f32d59b146102c2578063b44fcd81146102f1578063cbb873f71461051e578063f83ccc2d14610772575b600080fd5b34801561009457600080fd5b506100ef600480360381019080803590602001908201803590602001908080601f016020809104026020016040519081016040528093929190818152602001838380828437820191505050505050919291929050505061085b565b6040518080602001828103825283818151815260200191508051906020019060200280838360005b83811015610132578082015181840152602081019050610117565b505050509050019250505060405180910390f35b34801561015257600080fd5b506101f0600480360381019080803590602001908201803590602001908080601f016020809104026020016040519081016040528093929190818152602001838380828437820191505050505050919291929080359060200190820180359060200190808060200260200160405190810160405280939291908181526020018383602002808284378201915050505050509192919290505050610a24565b6040518080602001828103825283818151815260200191508051906020019080838360005b83811015610230578082015181840152602081019050610215565b50505050905090810190601f16801561025d5780820380516001836020036101000a031916815260200191505b509250505060405180910390f35b34801561027757600080fd5b50610280610c61565b604051808273ffffffffffffffffffffffffffffffffffffffff1673ffffffffffffffffffffffffffffffffffffffff16815260200191505060405180910390f35b3480156102ce57600080fd5b506102d7610c8a565b604051808215151515815260200191505060405180910390f35b3480156102fd57600080fd5b50610358600480360381019080803590602001908201803590602001908080601f0160208091040260200160405190810160405280939291908181526020018383808284378201915050505050509192919290505050610ce1565b604051808060200180602001806020018060200186815260200185810385528a818151815260200191508051906020019080838360005b838110156103aa57808201518184015260208101905061038f565b50505050905090810190601f1680156103d75780820380516001836020036101000a031916815260200191505b50858103845289818151815260200191508051906020019080838360005b838110156104105780820151818401526020810190506103f5565b50505050905090810190601f16801561043d5780820380516001836020036101000a031916815260200191505b50858103835288818151815260200191508051906020019080838360005b8381101561047657808201518184015260208101905061045b565b50505050905090810190601f1680156104a35780820380516001836020036101000a031916815260200191505b50858103825287818151815260200191508051906020019080838360005b838110156104dc5780820151818401526020810190506104c1565b50505050905090810190601f1680156105095780820380516001836020036101000a031916815260200191505b50995050505050505050505060405180910390f35b34801561052a57600080fd5b506106f7600480360381019080803590602001908201803590602001908080601f0160208091040260200160405190810160405280939291908181526020018383808284378201915050505050509192919290803590602001908201803590602001908080601f0160208091040260200160405190810160405280939291908181526020018383808284378201915050505050509192919290803590602001908201803590602001908080601f0160208091040260200160405190810160405280939291908181526020018383808284378201915050505050509192919290803590602001908201803590602001908080601f0160208091040260200160405190810160405280939291908181526020018383808284378201915050505050509192919290803590602001908201803590602001908080601f016020809104026020016040519081016040528093929190818152602001838380828437820191505050505050919291929080359060200190929190803590602001908201803590602001908080601f016020809104026020016040519081016040528093929190818152602001838380828437820191505050505050919291929080359060200190929190505050611566565b6040518080602001828103825283818151815260200191508051906020019080838360005b8381101561073757808201518184015260208101905061071c565b50505050905090810190601f1680156107645780820380516001836020036101000a031916815260200191505b509250505060405180910390f35b34801561077e57600080fd5b506107d9600480360381019080803590602001908201803590602001908080601f016020809104026020016040519081016040528093929190818152602001838380828437820191505050505050919291929050505061213e565b6040518080602001838152602001828103825284818151815260200191508051906020019080838360005b8381101561081f578082015181840152602081019050610804565b50505050905090810190601f16801561084c5780820380516001836020036101000a031916815260200191505b50935050505060405180910390f35b6060600260009054906101000a900473ffffffffffffffffffffffffffffffffffffffff1673ffffffffffffffffffffffffffffffffffffffff1663e5c52730836040518263ffffffff167c0100000000000000000000000000000000000000000000000000000000028152600401808060200180602001838103835284818151815260200191508051906020019080838360005b8381101561090b5780820151818401526020810190506108f0565b50505050905090810190601f1680156109385780820380516001836020036101000a031916815260200191505b50838103825260068152602001807f64696765737400000000000000000000000000000000000000000000000000008152506020019350505050600060405180830381600087803b15801561098c57600080fd5b505af11580156109a0573d6000803e3d6000fd5b505050506040513d6000823e3d601f19601f8201168201806040525060208110156109ca57600080fd5b8101908080516401000000008111156109e257600080fd5b828101905060208101848111156109f857600080fd5b8151856020820283011164010000000082111715610a1557600080fd5b50509291905050509050919050565b6060610a2e610c8a565b1515610ac8576040517f08c379a000000000000000000000000000000000000000000000000000000000815260040180806020018281038252602b8152602001807f53656e646572206973206e6f7420617574686f72697a65642077697468206f7781526020017f6e657220706f6c6963792e00000000000000000000000000000000000000000081525060400191505060405180910390fd5b600260009054906101000a900473ffffffffffffffffffffffffffffffffffffffff1673ffffffffffffffffffffffffffffffffffffffff166368102fcd84846040518363ffffffff167c010000000000000000000000000000000000000000000000000000000002815260040180806020018060200180602001848103845286818151815260200191508051906020019080838360005b83811015610b7b578082015181840152602081019050610b60565b50505050905090810190601f168015610ba85780820380516001836020036101000a031916815260200191505b50848103835260068152602001807f6469676573740000000000000000000000000000000000000000000000000000815250602001848103825285818151815260200191508051906020019060200280838360005b83811015610c18578082015181840152602081019050610bfd565b5050505090500195505050505050600060405180830381600087803b158015610c4057600080fd5b505af1158015610c54573d6000803e3d6000fd5b5050505082905092915050565b60008060009054906101000a900473ffffffffffffffffffffffffffffffffffffffff16905090565b60008060009054906101000a900473ffffffffffffffffffffffffffffffffffffffff1673ffffffffffffffffffffffffffffffffffffffff163373ffffffffffffffffffffffffffffffffffffffff1614905090565b6060806060806000600260009054906101000a900473ffffffffffffffffffffffffffffffffffffffff1673ffffffffffffffffffffffffffffffffffffffff16633f7690ca876040518263ffffffff167c0100000000000000000000000000000000000000000000000000000000028152600401808060200180602001838103835284818151815260200191508051906020019080838360005b83811015610d97578082015181840152602081019050610d7c565b50505050905090810190601f168015610dc45780820380516001836020036101000a031916815260200191505b50838103825260058152602001807f7469746c650000000000000000000000000000000000000000000000000000008152506020019350505050600060405180830381600087803b158015610e1857600080fd5b505af1158015610e2c573d6000803e3d6000fd5b505050506040513d6000823e3d601f19601f820116820180604052506020811015610e5657600080fd5b810190808051640100000000811115610e6e57600080fd5b82810190506020810184811115610e8457600080fd5b8151856001820283011164010000000082111715610ea157600080fd5b50509291905050509450600260009054906101000a900473ffffffffffffffffffffffffffffffffffffffff1673ffffffffffffffffffffffffffffffffffffffff16633f7690ca876040518263ffffffff167c0100000000000000000000000000000000000000000000000000000000028152600401808060200180602001838103835284818151815260200191508051906020019080838360005b83811015610f59578082015181840152602081019050610f3e565b50505050905090810190601f168015610f865780820380516001836020036101000a031916815260200191505b50838103825260068152602001807f617574686f7200000000000000000000000000000000000000000000000000008152506020019350505050600060405180830381600087803b158015610fda57600080fd5b505af1158015610fee573d6000803e3d6000fd5b505050506040513d6000823e3d601f19601f82011682018060405250602081101561101857600080fd5b81019080805164010000000081111561103057600080fd5b8281019050602081018481111561104657600080fd5b815185600182028301116401000000008211171561106357600080fd5b50509291905050509350600260009054906101000a900473ffffffffffffffffffffffffffffffffffffffff1673ffffffffffffffffffffffffffffffffffffffff16633f7690ca876040518263ffffffff167c0100000000000000000000000000000000000000000000000000000000028152600401808060200180602001838103835284818151815260200191508051906020019080838360005b8381101561111b578082015181840152602081019050611100565b50505050905090810190601f1680156111485780820380516001836020036101000a031916815260200191505b50838103825260048152602001807f6c616e67000000000000000000000000000000000000000000000000000000008152506020019350505050600060405180830381600087803b15801561119c57600080fd5b505af11580156111b0573d6000803e3d6000fd5b505050506040513d6000823e3d601f19601f8201168201806040525060208110156111da57600080fd5b8101908080516401000000008111156111f257600080fd5b8281019050602081018481111561120857600080fd5b815185600182028301116401000000008211171561122557600080fd5b50509291905050509250600260009054906101000a900473ffffffffffffffffffffffffffffffffffffffff1673ffffffffffffffffffffffffffffffffffffffff16633f7690ca876040518263ffffffff167c0100000000000000000000000000000000000000000000000000000000028152600401808060200180602001838103835284818151815260200191508051906020019080838360005b838110156112dd5780820151818401526020810190506112c2565b50505050905090810190601f16801561130a5780820380516001836020036101000a031916815260200191505b508381038252600c8152602001807f7075626c69736865725f696400000000000000000000000000000000000000008152506020019350505050600060405180830381600087803b15801561135e57600080fd5b505af1158015611372573d6000803e3d6000fd5b505050506040513d6000823e3d601f19601f82011682018060405250602081101561139c57600080fd5b8101908080516401000000008111156113b457600080fd5b828101905060208101848111156113ca57600080fd5b81518560018202830111640100000000821117156113e757600080fd5b50509291905050509150600260009054906101000a900473ffffffffffffffffffffffffffffffffffffffff1673ffffffffffffffffffffffffffffffffffffffff16635df6d3cc876040518263ffffffff167c0100000000000000000000000000000000000000000000000000000000028152600401808060200180602001838103835284818151815260200191508051906020019080838360005b8381101561149f578082015181840152602081019050611484565b50505050905090810190601f1680156114cc5780820380516001836020036101000a031916815260200191505b508381038252600c8152602001807f7075626c6973685f6461746500000000000000000000000000000000000000008152506020019350505050602060405180830381600087803b15801561152057600080fd5b505af1158015611534573d6000803e3d6000fd5b505050506040513d602081101561154a57600080fd5b8101908080519060200190929190505050905091939590929450565b6060611570610c8a565b151561160a576040517f08c379a000000000000000000000000000000000000000000000000000000000815260040180806020018281038252602b8152602001807f53656e646572206973206e6f7420617574686f72697a65642077697468206f7781526020017f6e657220706f6c6963792e00000000000000000000000000000000000000000081525060400191505060405180910390fd5b889050600260009054906101000a900473ffffffffffffffffffffffffffffffffffffffff1673ffffffffffffffffffffffffffffffffffffffff1663d12173978a8a6040518363ffffffff167c010000000000000000000000000000000000000000000000000000000002815260040180806020018060200180602001848103845286818151815260200191508051906020019080838360005b838110156116c05780820151818401526020810190506116a5565b50505050905090810190601f1680156116ed5780820380516001836020036101000a031916815260200191505b50848103835260058152602001807f7469746c65000000000000000000000000000000000000000000000000000000815250602001848103825285818151815260200191508051906020019080838360005b8381101561175a57808201518184015260208101905061173f565b50505050905090810190601f1680156117875780820380516001836020036101000a031916815260200191505b5095505050505050600060405180830381600087803b1580156117a957600080fd5b505af11580156117bd573d6000803e3d6000fd5b50505050600260009054906101000a900473ffffffffffffffffffffffffffffffffffffffff1673ffffffffffffffffffffffffffffffffffffffff1663d12173978a896040518363ffffffff167c010000000000000000000000000000000000000000000000000000000002815260040180806020018060200180602001848103845286818151815260200191508051906020019080838360005b83811015611874578082015181840152602081019050611859565b50505050905090810190601f1680156118a15780820380516001836020036101000a031916815260200191505b50848103835260068152602001807f617574686f720000000000000000000000000000000000000000000000000000815250602001848103825285818151815260200191508051906020019080838360005b8381101561190e5780820151818401526020810190506118f3565b50505050905090810190601f16801561193b5780820380516001836020036101000a031916815260200191505b5095505050505050600060405180830381600087803b15801561195d57600080fd5b505af1158015611971573d6000803e3d6000fd5b50505050600260009054906101000a900473ffffffffffffffffffffffffffffffffffffffff1673ffffffffffffffffffffffffffffffffffffffff1663d12173978a886040518363ffffffff167c010000000000000000000000000000000000000000000000000000000002815260040180806020018060200180602001848103845286818151815260200191508051906020019080838360005b83811015611a28578082015181840152602081019050611a0d565b50505050905090810190601f168015611a555780820380516001836020036101000a031916815260200191505b50848103835260068152602001807f6f726967696e0000000000000000000000000000000000000000000000000000815250602001848103825285818151815260200191508051906020019080838360005b83811015611ac2578082015181840152602081019050611aa7565b50505050905090810190601f168015611aef5780820380516001836020036101000a031916815260200191505b5095505050505050600060405180830381600087803b158015611b1157600080fd5b505af1158015611b25573d6000803e3d6000fd5b50505050600260009054906101000a900473ffffffffffffffffffffffffffffffffffffffff1673ffffffffffffffffffffffffffffffffffffffff1663d12173978a876040518363ffffffff167c010000000000000000000000000000000000000000000000000000000002815260040180806020018060200180602001848103845286818151815260200191508051906020019080838360005b83811015611bdc578082015181840152602081019050611bc1565b50505050905090810190601f168015611c095780820380516001836020036101000a031916815260200191505b50848103835260048152602001807f6c616e6700000000000000000000000000000000000000000000000000000000815250602001848103825285818151815260200191508051906020019080838360005b83811015611c76578082015181840152602081019050611c5b565b50505050905090810190601f168015611ca35780820380516001836020036101000a031916815260200191505b5095505050505050600060405180830381600087803b158015611cc557600080fd5b505af1158015611cd9573d6000803e3d6000fd5b50505050600260009054906101000a900473ffffffffffffffffffffffffffffffffffffffff1673ffffffffffffffffffffffffffffffffffffffff166356b44b2c8a866040518363ffffffff167c0100000000000000000000000000000000000000000000000000000000028152600401808060200180602001848152602001838103835285818151815260200191508051906020019080838360005b83811015611d92578082015181840152602081019050611d77565b50505050905090810190601f168015611dbf5780820380516001836020036101000a031916815260200191505b50838103825260098152602001807f70617065726261636b0000000000000000000000000000000000000000000000815250602001945050505050600060405180830381600087803b158015611e1457600080fd5b505af1158015611e28573d6000803e3d6000fd5b50505050600260009054906101000a900473ffffffffffffffffffffffffffffffffffffffff1673ffffffffffffffffffffffffffffffffffffffff1663d12173978a856040518363ffffffff167c010000000000000000000000000000000000000000000000000000000002815260040180806020018060200180602001848103845286818151815260200191508051906020019080838360005b83811015611edf578082015181840152602081019050611ec4565b50505050905090810190601f168015611f0c5780820380516001836020036101000a031916815260200191505b508481038352600c8152602001807f7075626c69736865725f69640000000000000000000000000000000000000000815250602001848103825285818151815260200191508051906020019080838360005b83811015611f79578082015181840152602081019050611f5e565b50505050905090810190601f168015611fa65780820380516001836020036101000a031916815260200191505b5095505050505050600060405180830381600087803b158015611fc857600080fd5b505af1158015611fdc573d6000803e3d6000fd5b50505050600260009054906101000a900473ffffffffffffffffffffffffffffffffffffffff1673ffffffffffffffffffffffffffffffffffffffff166356b44b2c8a846040518363ffffffff167c0100000000000000000000000000000000000000000000000000000000028152600401808060200180602001848152602001838103835285818151815260200191508051906020019080838360005b8381101561209557808201518184015260208101905061207a565b50505050905090810190601f1680156120c25780820380516001836020036101000a031916815260200191505b508381038252600c8152602001807f7075626c6973685f646174650000000000000000000000000000000000000000815250602001945050505050600060405180830381600087803b15801561211757600080fd5b505af115801561212b573d6000803e3d6000fd5b5050505080905098975050505050505050565b60606000600260009054906101000a900473ffffffffffffffffffffffffffffffffffffffff1673ffffffffffffffffffffffffffffffffffffffff16633f7690ca846040518263ffffffff167c0100000000000000000000000000000000000000000000000000000000028152600401808060200180602001838103835284818151815260200191508051906020019080838360005b838110156121f05780820151818401526020810190506121d5565b50505050905090810190601f16801561221d5780820380516001836020036101000a031916815260200191505b50838103825260068152602001807f6f726967696e00000000000000000000000000000000000000000000000000008152506020019350505050600060405180830381600087803b15801561227157600080fd5b505af1158015612285573d6000803e3d6000fd5b505050506040513d6000823e3d601f19601f8201168201806040525060208110156122af57600080fd5b8101908080516401000000008111156122c757600080fd5b828101905060208101848111156122dd57600080fd5b81518560018202830111640100000000821117156122fa57600080fd5b50509291905050509150600260009054906101000a900473ffffffffffffffffffffffffffffffffffffffff1673ffffffffffffffffffffffffffffffffffffffff16635df6d3cc846040518263ffffffff167c0100000000000000000000000000000000000000000000000000000000028152600401808060200180602001838103835284818151815260200191508051906020019080838360005b838110156123b2578082015181840152602081019050612397565b50505050905090810190601f1680156123df5780820380516001836020036101000a031916815260200191505b50838103825260098152602001807f70617065726261636b00000000000000000000000000000000000000000000008152506020019350505050602060405180830381600087803b15801561243357600080fd5b505af1158015612447573d6000803e3d6000fd5b505050506040513d602081101561245d57600080fd5b810190808051906020019092919050505090509150915600a165627a7a72305820f49e30a64d245ad393a4c452a7ca123e0c493f5378aa243268bd34b69846d5030029",
  "source": "pragma solidity ^0.4.24;\n\nimport \"../persistence/Storage.sol\";\nimport \"../security/AccessRestriction.sol\";\nimport \"../common/Event.sol\";\n\ncontract MetaDataController is AccessRestriction,Event{\n\n    Storage _storage;\n\n    constructor (address storageAddress) public{\n        _owner = msg.sender;\n        _storage = Storage(storageAddress);\n    }\n\n    function addBook(string newKey,string title,string author,string origin,string lang,uint256 paperback,string publisherId,uint256 publishDate) public onlyOwner returns(string returnKey) {\n        // Validate data\n        // newKey = _storage.getNewKey();\n        returnKey = newKey;\n        // emit OutputString(\"title\",title);\n        // emit OutputString(\"author\",author);\n        _storage.setString(newKey,\"title\",title);\n        _storage.setString(newKey,\"author\",author);\n        _storage.setString(newKey,\"origin\",origin);\n        _storage.setString(newKey,\"lang\",lang);\n        _storage.setUint(newKey,\"paperback\",paperback);\n        _storage.setString(newKey,\"publisher_id\",publisherId);\n        _storage.setUint(newKey,\"publish_date\",publishDate);\n        return returnKey;\n    }\n\n    function uploadDigest(string newKey,uint64[] digest) public onlyOwner returns(string returnKey) {\n        _storage.setUintArray(newKey,\"digest\",digest);\n\n        returnKey = newKey;\n    }\n\n    function getBookByKey(string key) public view returns(string title,string author,string lang,string publisherId,uint256 publishDate) {\n         title = _storage.getString(key,\"title\");\n         author = _storage.getString(key,\"author\");\n         lang = _storage.getString(key,\"lang\");\n         publisherId = _storage.getString(key,\"publisher_id\");\n         publishDate = _storage.getUint(key,\"publish_date\");\n    }\n\n    function downloadDigest(string newKey) public view returns(uint64[] digest) {\n        digest = _storage.getUintArray(newKey,\"digest\");\n    }\n\n    function getAdditionalBookData(string key) public view returns(string origin,uint256 paperback) {\n        origin = _storage.getString(key,\"origin\");\n        paperback = _storage.getUint(key,\"paperback\");\n    }\n\n}",
  "sourcePath": "/Users/mar/Workspace/echo/sixecho-server/contract/contracts/controller/MetaDataController.sol",
  "compiler": {
    "name": "solc",
    "version": "0.4.26+commit.4563c3fc.Emscripten.clang"
  },
  "schemaVersion": "2.0.2",
  "updatedAt": "2019-08-08T10:59:17.772Z"
}