{
  "contractName": "MetaDataController",
  "abi": [
    {
      "constant": true,
      "inputs": [],
      "name": "owner",
      "outputs": [
        {
          "name": "",
          "type": "address"
        }
      ],
      "payable": false,
      "stateMutability": "view",
      "type": "function"
    },
    {
      "constant": true,
      "inputs": [],
      "name": "isOwner",
      "outputs": [
        {
          "name": "",
          "type": "bool"
        }
      ],
      "payable": false,
      "stateMutability": "view",
      "type": "function"
    },
    {
      "inputs": [
        {
          "name": "storageAddress",
          "type": "address"
        }
      ],
      "payable": false,
      "stateMutability": "nonpayable",
      "type": "constructor"
    },
    {
      "anonymous": false,
      "inputs": [
        {
          "indexed": false,
          "name": "key",
          "type": "string"
        },
        {
          "indexed": false,
          "name": "value",
          "type": "string"
        }
      ],
      "name": "OutputString",
      "type": "event"
    },
    {
      "anonymous": false,
      "inputs": [
        {
          "indexed": false,
          "name": "key",
          "type": "string"
        },
        {
          "indexed": false,
          "name": "value",
          "type": "address"
        }
      ],
      "name": "OutputAddress",
      "type": "event"
    },
    {
      "anonymous": false,
      "inputs": [
        {
          "indexed": false,
          "name": "key",
          "type": "string"
        },
        {
          "indexed": false,
          "name": "value",
          "type": "bytes32"
        }
      ],
      "name": "OutputBytes32",
      "type": "event"
    },
    {
      "anonymous": false,
      "inputs": [
        {
          "indexed": false,
          "name": "key",
          "type": "string"
        },
        {
          "indexed": false,
          "name": "value",
          "type": "uint256"
        }
      ],
      "name": "OutputUint256",
      "type": "event"
    },
    {
      "constant": false,
      "inputs": [
        {
          "name": "newKey",
          "type": "string"
        },
        {
          "name": "title",
          "type": "string"
        },
        {
          "name": "author",
          "type": "string"
        },
        {
          "name": "origin",
          "type": "string"
        },
        {
          "name": "lang",
          "type": "string"
        },
        {
          "name": "paperback",
          "type": "uint256"
        },
        {
          "name": "publisherId",
          "type": "string"
        },
        {
          "name": "publishDate",
          "type": "uint256"
        }
      ],
      "name": "addBook",
      "outputs": [
        {
          "name": "returnKey",
          "type": "string"
        }
      ],
      "payable": false,
      "stateMutability": "nonpayable",
      "type": "function"
    },
    {
      "constant": false,
      "inputs": [
        {
          "name": "newKey",
          "type": "string"
        },
        {
          "name": "digest",
          "type": "uint256[]"
        }
      ],
      "name": "uploadDigest",
      "outputs": [
        {
          "name": "returnKey",
          "type": "string"
        }
      ],
      "payable": false,
      "stateMutability": "nonpayable",
      "type": "function"
    },
    {
      "constant": true,
      "inputs": [
        {
          "name": "key",
          "type": "string"
        }
      ],
      "name": "getBookByKey",
      "outputs": [
        {
          "name": "title",
          "type": "string"
        },
        {
          "name": "author",
          "type": "string"
        },
        {
          "name": "lang",
          "type": "string"
        },
        {
          "name": "publisherId",
          "type": "string"
        },
        {
          "name": "publishDate",
          "type": "uint256"
        }
      ],
      "payable": false,
      "stateMutability": "view",
      "type": "function"
    },
    {
      "constant": true,
      "inputs": [
        {
          "name": "newKey",
          "type": "string"
        }
      ],
      "name": "downloadDigest",
      "outputs": [
        {
          "name": "digest",
          "type": "uint256[]"
        }
      ],
      "payable": false,
      "stateMutability": "view",
      "type": "function"
    }
  ],
  "bytecode": "0x608060405234801561001057600080fd5b506040516020806121d183398101806040528101908080519060200190929190505050336000806101000a81548173ffffffffffffffffffffffffffffffffffffffff021916908373ffffffffffffffffffffffffffffffffffffffff16021790555060018060003373ffffffffffffffffffffffffffffffffffffffff1673ffffffffffffffffffffffffffffffffffffffff16815260200190815260200160002060006101000a81548160ff021916908315150217905550336000806101000a81548173ffffffffffffffffffffffffffffffffffffffff021916908373ffffffffffffffffffffffffffffffffffffffff16021790555080600260006101000a81548173ffffffffffffffffffffffffffffffffffffffff021916908373ffffffffffffffffffffffffffffffffffffffff160217905550506120768061015b6000396000f300608060405260043610610078576000357c0100000000000000000000000000000000000000000000000000000000900463ffffffff1680636fd62bfe1461007d5780638da5cb5b1461013b5780638f32d59b14610192578063a5709b7b146101c1578063b44fcd81146102e6578063cbb873f714610513575b600080fd5b34801561008957600080fd5b506100e4600480360381019080803590602001908201803590602001908080601f0160208091040260200160405190810160405280939291908181526020018383808284378201915050505050509192919290505050610767565b6040518080602001828103825283818151815260200191508051906020019060200280838360005b8381101561012757808201518184015260208101905061010c565b505050509050019250505060405180910390f35b34801561014757600080fd5b50610150610930565b604051808273ffffffffffffffffffffffffffffffffffffffff1673ffffffffffffffffffffffffffffffffffffffff16815260200191505060405180910390f35b34801561019e57600080fd5b506101a7610959565b604051808215151515815260200191505060405180910390f35b3480156101cd57600080fd5b5061026b600480360381019080803590602001908201803590602001908080601f0160208091040260200160405190810160405280939291908181526020018383808284378201915050505050509192919290803590602001908201803590602001908080602002602001604051908101604052809392919081815260200183836020028082843782019150505050505091929192905050506109b0565b6040518080602001828103825283818151815260200191508051906020019080838360005b838110156102ab578082015181840152602081019050610290565b50505050905090810190601f1680156102d85780820380516001836020036101000a031916815260200191505b509250505060405180910390f35b3480156102f257600080fd5b5061034d600480360381019080803590602001908201803590602001908080601f0160208091040260200160405190810160405280939291908181526020018383808284378201915050505050509192919290505050610bed565b604051808060200180602001806020018060200186815260200185810385528a818151815260200191508051906020019080838360005b8381101561039f578082015181840152602081019050610384565b50505050905090810190601f1680156103cc5780820380516001836020036101000a031916815260200191505b50858103845289818151815260200191508051906020019080838360005b838110156104055780820151818401526020810190506103ea565b50505050905090810190601f1680156104325780820380516001836020036101000a031916815260200191505b50858103835288818151815260200191508051906020019080838360005b8381101561046b578082015181840152602081019050610450565b50505050905090810190601f1680156104985780820380516001836020036101000a031916815260200191505b50858103825287818151815260200191508051906020019080838360005b838110156104d15780820151818401526020810190506104b6565b50505050905090810190601f1680156104fe5780820380516001836020036101000a031916815260200191505b50995050505050505050505060405180910390f35b34801561051f57600080fd5b506106ec600480360381019080803590602001908201803590602001908080601f0160208091040260200160405190810160405280939291908181526020018383808284378201915050505050509192919290803590602001908201803590602001908080601f0160208091040260200160405190810160405280939291908181526020018383808284378201915050505050509192919290803590602001908201803590602001908080601f0160208091040260200160405190810160405280939291908181526020018383808284378201915050505050509192919290803590602001908201803590602001908080601f0160208091040260200160405190810160405280939291908181526020018383808284378201915050505050509192919290803590602001908201803590602001908080601f016020809104026020016040519081016040528093929190818152602001838380828437820191505050505050919291929080359060200190929190803590602001908201803590602001908080601f016020809104026020016040519081016040528093929190818152602001838380828437820191505050505050919291929080359060200190929190505050611472565b6040518080602001828103825283818151815260200191508051906020019080838360005b8381101561072c578082015181840152602081019050610711565b50505050905090810190601f1680156107595780820380516001836020036101000a031916815260200191505b509250505060405180910390f35b6060600260009054906101000a900473ffffffffffffffffffffffffffffffffffffffff1673ffffffffffffffffffffffffffffffffffffffff1663e5c52730836040518263ffffffff167c0100000000000000000000000000000000000000000000000000000000028152600401808060200180602001838103835284818151815260200191508051906020019080838360005b838110156108175780820151818401526020810190506107fc565b50505050905090810190601f1680156108445780820380516001836020036101000a031916815260200191505b50838103825260068152602001807f64696765737400000000000000000000000000000000000000000000000000008152506020019350505050600060405180830381600087803b15801561089857600080fd5b505af11580156108ac573d6000803e3d6000fd5b505050506040513d6000823e3d601f19601f8201168201806040525060208110156108d657600080fd5b8101908080516401000000008111156108ee57600080fd5b8281019050602081018481111561090457600080fd5b815185602082028301116401000000008211171561092157600080fd5b50509291905050509050919050565b60008060009054906101000a900473ffffffffffffffffffffffffffffffffffffffff16905090565b60008060009054906101000a900473ffffffffffffffffffffffffffffffffffffffff1673ffffffffffffffffffffffffffffffffffffffff163373ffffffffffffffffffffffffffffffffffffffff1614905090565b60606109ba610959565b1515610a54576040517f08c379a000000000000000000000000000000000000000000000000000000000815260040180806020018281038252602b8152602001807f53656e646572206973206e6f7420617574686f72697a65642077697468206f7781526020017f6e657220706f6c6963792e00000000000000000000000000000000000000000081525060400191505060405180910390fd5b600260009054906101000a900473ffffffffffffffffffffffffffffffffffffffff1673ffffffffffffffffffffffffffffffffffffffff1663c821b75684846040518363ffffffff167c010000000000000000000000000000000000000000000000000000000002815260040180806020018060200180602001848103845286818151815260200191508051906020019080838360005b83811015610b07578082015181840152602081019050610aec565b50505050905090810190601f168015610b345780820380516001836020036101000a031916815260200191505b50848103835260068152602001807f6469676573740000000000000000000000000000000000000000000000000000815250602001848103825285818151815260200191508051906020019060200280838360005b83811015610ba4578082015181840152602081019050610b89565b5050505090500195505050505050600060405180830381600087803b158015610bcc57600080fd5b505af1158015610be0573d6000803e3d6000fd5b5050505082905092915050565b6060806060806000600260009054906101000a900473ffffffffffffffffffffffffffffffffffffffff1673ffffffffffffffffffffffffffffffffffffffff16633f7690ca876040518263ffffffff167c0100000000000000000000000000000000000000000000000000000000028152600401808060200180602001838103835284818151815260200191508051906020019080838360005b83811015610ca3578082015181840152602081019050610c88565b50505050905090810190601f168015610cd05780820380516001836020036101000a031916815260200191505b50838103825260058152602001807f7469746c650000000000000000000000000000000000000000000000000000008152506020019350505050600060405180830381600087803b158015610d2457600080fd5b505af1158015610d38573d6000803e3d6000fd5b505050506040513d6000823e3d601f19601f820116820180604052506020811015610d6257600080fd5b810190808051640100000000811115610d7a57600080fd5b82810190506020810184811115610d9057600080fd5b8151856001820283011164010000000082111715610dad57600080fd5b50509291905050509450600260009054906101000a900473ffffffffffffffffffffffffffffffffffffffff1673ffffffffffffffffffffffffffffffffffffffff16633f7690ca876040518263ffffffff167c0100000000000000000000000000000000000000000000000000000000028152600401808060200180602001838103835284818151815260200191508051906020019080838360005b83811015610e65578082015181840152602081019050610e4a565b50505050905090810190601f168015610e925780820380516001836020036101000a031916815260200191505b50838103825260068152602001807f617574686f7200000000000000000000000000000000000000000000000000008152506020019350505050600060405180830381600087803b158015610ee657600080fd5b505af1158015610efa573d6000803e3d6000fd5b505050506040513d6000823e3d601f19601f820116820180604052506020811015610f2457600080fd5b810190808051640100000000811115610f3c57600080fd5b82810190506020810184811115610f5257600080fd5b8151856001820283011164010000000082111715610f6f57600080fd5b50509291905050509350600260009054906101000a900473ffffffffffffffffffffffffffffffffffffffff1673ffffffffffffffffffffffffffffffffffffffff16633f7690ca876040518263ffffffff167c0100000000000000000000000000000000000000000000000000000000028152600401808060200180602001838103835284818151815260200191508051906020019080838360005b8381101561102757808201518184015260208101905061100c565b50505050905090810190601f1680156110545780820380516001836020036101000a031916815260200191505b50838103825260048152602001807f6c616e67000000000000000000000000000000000000000000000000000000008152506020019350505050600060405180830381600087803b1580156110a857600080fd5b505af11580156110bc573d6000803e3d6000fd5b505050506040513d6000823e3d601f19601f8201168201806040525060208110156110e657600080fd5b8101908080516401000000008111156110fe57600080fd5b8281019050602081018481111561111457600080fd5b815185600182028301116401000000008211171561113157600080fd5b50509291905050509250600260009054906101000a900473ffffffffffffffffffffffffffffffffffffffff1673ffffffffffffffffffffffffffffffffffffffff16633f7690ca876040518263ffffffff167c0100000000000000000000000000000000000000000000000000000000028152600401808060200180602001838103835284818151815260200191508051906020019080838360005b838110156111e95780820151818401526020810190506111ce565b50505050905090810190601f1680156112165780820380516001836020036101000a031916815260200191505b508381038252600c8152602001807f7075626c69736865725f696400000000000000000000000000000000000000008152506020019350505050600060405180830381600087803b15801561126a57600080fd5b505af115801561127e573d6000803e3d6000fd5b505050506040513d6000823e3d601f19601f8201168201806040525060208110156112a857600080fd5b8101908080516401000000008111156112c057600080fd5b828101905060208101848111156112d657600080fd5b81518560018202830111640100000000821117156112f357600080fd5b50509291905050509150600260009054906101000a900473ffffffffffffffffffffffffffffffffffffffff1673ffffffffffffffffffffffffffffffffffffffff16635df6d3cc876040518263ffffffff167c0100000000000000000000000000000000000000000000000000000000028152600401808060200180602001838103835284818151815260200191508051906020019080838360005b838110156113ab578082015181840152602081019050611390565b50505050905090810190601f1680156113d85780820380516001836020036101000a031916815260200191505b508381038252600c8152602001807f7075626c6973685f6461746500000000000000000000000000000000000000008152506020019350505050602060405180830381600087803b15801561142c57600080fd5b505af1158015611440573d6000803e3d6000fd5b505050506040513d602081101561145657600080fd5b8101908080519060200190929190505050905091939590929450565b606061147c610959565b1515611516576040517f08c379a000000000000000000000000000000000000000000000000000000000815260040180806020018281038252602b8152602001807f53656e646572206973206e6f7420617574686f72697a65642077697468206f7781526020017f6e657220706f6c6963792e00000000000000000000000000000000000000000081525060400191505060405180910390fd5b889050600260009054906101000a900473ffffffffffffffffffffffffffffffffffffffff1673ffffffffffffffffffffffffffffffffffffffff1663d12173978a8a6040518363ffffffff167c010000000000000000000000000000000000000000000000000000000002815260040180806020018060200180602001848103845286818151815260200191508051906020019080838360005b838110156115cc5780820151818401526020810190506115b1565b50505050905090810190601f1680156115f95780820380516001836020036101000a031916815260200191505b50848103835260058152602001807f7469746c65000000000000000000000000000000000000000000000000000000815250602001848103825285818151815260200191508051906020019080838360005b8381101561166657808201518184015260208101905061164b565b50505050905090810190601f1680156116935780820380516001836020036101000a031916815260200191505b5095505050505050600060405180830381600087803b1580156116b557600080fd5b505af11580156116c9573d6000803e3d6000fd5b50505050600260009054906101000a900473ffffffffffffffffffffffffffffffffffffffff1673ffffffffffffffffffffffffffffffffffffffff1663d12173978a896040518363ffffffff167c010000000000000000000000000000000000000000000000000000000002815260040180806020018060200180602001848103845286818151815260200191508051906020019080838360005b83811015611780578082015181840152602081019050611765565b50505050905090810190601f1680156117ad5780820380516001836020036101000a031916815260200191505b50848103835260068152602001807f617574686f720000000000000000000000000000000000000000000000000000815250602001848103825285818151815260200191508051906020019080838360005b8381101561181a5780820151818401526020810190506117ff565b50505050905090810190601f1680156118475780820380516001836020036101000a031916815260200191505b5095505050505050600060405180830381600087803b15801561186957600080fd5b505af115801561187d573d6000803e3d6000fd5b50505050600260009054906101000a900473ffffffffffffffffffffffffffffffffffffffff1673ffffffffffffffffffffffffffffffffffffffff1663d12173978a886040518363ffffffff167c010000000000000000000000000000000000000000000000000000000002815260040180806020018060200180602001848103845286818151815260200191508051906020019080838360005b83811015611934578082015181840152602081019050611919565b50505050905090810190601f1680156119615780820380516001836020036101000a031916815260200191505b50848103835260068152602001807f6f726967696e0000000000000000000000000000000000000000000000000000815250602001848103825285818151815260200191508051906020019080838360005b838110156119ce5780820151818401526020810190506119b3565b50505050905090810190601f1680156119fb5780820380516001836020036101000a031916815260200191505b5095505050505050600060405180830381600087803b158015611a1d57600080fd5b505af1158015611a31573d6000803e3d6000fd5b50505050600260009054906101000a900473ffffffffffffffffffffffffffffffffffffffff1673ffffffffffffffffffffffffffffffffffffffff1663d12173978a876040518363ffffffff167c010000000000000000000000000000000000000000000000000000000002815260040180806020018060200180602001848103845286818151815260200191508051906020019080838360005b83811015611ae8578082015181840152602081019050611acd565b50505050905090810190601f168015611b155780820380516001836020036101000a031916815260200191505b50848103835260048152602001807f6c616e6700000000000000000000000000000000000000000000000000000000815250602001848103825285818151815260200191508051906020019080838360005b83811015611b82578082015181840152602081019050611b67565b50505050905090810190601f168015611baf5780820380516001836020036101000a031916815260200191505b5095505050505050600060405180830381600087803b158015611bd157600080fd5b505af1158015611be5573d6000803e3d6000fd5b50505050600260009054906101000a900473ffffffffffffffffffffffffffffffffffffffff1673ffffffffffffffffffffffffffffffffffffffff166356b44b2c8a866040518363ffffffff167c0100000000000000000000000000000000000000000000000000000000028152600401808060200180602001848152602001838103835285818151815260200191508051906020019080838360005b83811015611c9e578082015181840152602081019050611c83565b50505050905090810190601f168015611ccb5780820380516001836020036101000a031916815260200191505b50838103825260098152602001807f70617065726261636b0000000000000000000000000000000000000000000000815250602001945050505050600060405180830381600087803b158015611d2057600080fd5b505af1158015611d34573d6000803e3d6000fd5b50505050600260009054906101000a900473ffffffffffffffffffffffffffffffffffffffff1673ffffffffffffffffffffffffffffffffffffffff1663d12173978a856040518363ffffffff167c010000000000000000000000000000000000000000000000000000000002815260040180806020018060200180602001848103845286818151815260200191508051906020019080838360005b83811015611deb578082015181840152602081019050611dd0565b50505050905090810190601f168015611e185780820380516001836020036101000a031916815260200191505b508481038352600c8152602001807f7075626c69736865725f69640000000000000000000000000000000000000000815250602001848103825285818151815260200191508051906020019080838360005b83811015611e85578082015181840152602081019050611e6a565b50505050905090810190601f168015611eb25780820380516001836020036101000a031916815260200191505b5095505050505050600060405180830381600087803b158015611ed457600080fd5b505af1158015611ee8573d6000803e3d6000fd5b50505050600260009054906101000a900473ffffffffffffffffffffffffffffffffffffffff1673ffffffffffffffffffffffffffffffffffffffff166356b44b2c8a846040518363ffffffff167c0100000000000000000000000000000000000000000000000000000000028152600401808060200180602001848152602001838103835285818151815260200191508051906020019080838360005b83811015611fa1578082015181840152602081019050611f86565b50505050905090810190601f168015611fce5780820380516001836020036101000a031916815260200191505b508381038252600c8152602001807f7075626c6973685f646174650000000000000000000000000000000000000000815250602001945050505050600060405180830381600087803b15801561202357600080fd5b505af1158015612037573d6000803e3d6000fd5b50505050809050989750505050505050505600a165627a7a72305820a255adda6fcfcfee039cabf776f084317ce96d5ea53beea16faf87958252a0120029",
  "source": "pragma solidity ^0.4.24;\n\nimport \"../persistence/Storage.sol\";\nimport \"../security/AccessRestriction.sol\";\nimport \"../common/Event.sol\";\n\ncontract MetaDataController is AccessRestriction,Event{\n\n    Storage _storage;\n\n    constructor (address storageAddress) public{\n        _owner = msg.sender;\n        _storage = Storage(storageAddress);\n    }\n\n    function addBook(string newKey,string title,string author,string origin,string lang,uint256 paperback,string publisherId,uint256 publishDate) public onlyOwner returns(string returnKey) {\n        // Validate data\n        // newKey = _storage.getNewKey();\n        returnKey = newKey;\n        // emit OutputString(\"title\",title);\n        // emit OutputString(\"author\",author);\n        _storage.setString(newKey,\"title\",title);\n        _storage.setString(newKey,\"author\",author);\n        _storage.setString(newKey,\"origin\",origin);\n        _storage.setString(newKey,\"lang\",lang);\n        _storage.setUint(newKey,\"paperback\",paperback);\n        _storage.setString(newKey,\"publisher_id\",publisherId);\n        _storage.setUint(newKey,\"publish_date\",publishDate);\n        return returnKey;\n    }\n\n    function uploadDigest(string newKey,uint256[] digest) public onlyOwner returns(string returnKey) {\n        _storage.setUintArray(newKey,\"digest\",digest);\n\n        returnKey = newKey;\n    }\n\n    function getBookByKey(string key) public view returns(string title,string author,string lang,string publisherId,uint256 publishDate) {\n         title = _storage.getString(key,\"title\");\n         author = _storage.getString(key,\"author\");\n         lang = _storage.getString(key,\"lang\");\n         publisherId = _storage.getString(key,\"publisher_id\");\n         publishDate = _storage.getUint(key,\"publish_date\");\n    }\n\n    function downloadDigest(string newKey) public view returns(uint256[] digest) {\n        digest = _storage.getUintArray(newKey,\"digest\");\n    }\n\n}",
  "sourcePath": "/Users/mar/Workspace/echo/sixecho-server/contract/contracts/controller/MetaDataController.sol",
  "compiler": {
    "name": "solc",
    "version": "0.4.26+commit.4563c3fc.Emscripten.clang"
  },
  "schemaVersion": "2.0.2",
  "updatedAt": "2019-07-23T07:05:58.021Z"
}