{
  "contractName": "MetaDataController",
  "abi": [
    {
      "constant": true,
      "inputs": [],
      "name": "owner",
      "outputs": [
        {
          "name": "",
          "type": "address"
        }
      ],
      "payable": false,
      "stateMutability": "view",
      "type": "function"
    },
    {
      "constant": true,
      "inputs": [],
      "name": "isOwner",
      "outputs": [
        {
          "name": "",
          "type": "bool"
        }
      ],
      "payable": false,
      "stateMutability": "view",
      "type": "function"
    },
    {
      "inputs": [
        {
          "name": "storageAddress",
          "type": "address"
        }
      ],
      "payable": false,
      "stateMutability": "nonpayable",
      "type": "constructor"
    },
    {
      "anonymous": false,
      "inputs": [
        {
          "indexed": false,
          "name": "key",
          "type": "string"
        },
        {
          "indexed": false,
          "name": "value",
          "type": "string"
        }
      ],
      "name": "OutputString",
      "type": "event"
    },
    {
      "anonymous": false,
      "inputs": [
        {
          "indexed": false,
          "name": "key",
          "type": "string"
        },
        {
          "indexed": false,
          "name": "value",
          "type": "address"
        }
      ],
      "name": "OutputAddress",
      "type": "event"
    },
    {
      "anonymous": false,
      "inputs": [
        {
          "indexed": false,
          "name": "key",
          "type": "string"
        },
        {
          "indexed": false,
          "name": "value",
          "type": "bytes32"
        }
      ],
      "name": "OutputBytes32",
      "type": "event"
    },
    {
      "anonymous": false,
      "inputs": [
        {
          "indexed": false,
          "name": "key",
          "type": "string"
        },
        {
          "indexed": false,
          "name": "value",
          "type": "uint256"
        }
      ],
      "name": "OutputUint256",
      "type": "event"
    },
    {
      "constant": false,
      "inputs": [
        {
          "name": "h",
          "type": "string"
        },
        {
          "name": "blockNo",
          "type": "string"
        }
      ],
      "name": "addAsset",
      "outputs": [
        {
          "name": "",
          "type": "string"
        }
      ],
      "payable": false,
      "stateMutability": "nonpayable",
      "type": "function"
    },
    {
      "constant": false,
      "inputs": [
        {
          "name": "newKey",
          "type": "string"
        },
        {
          "name": "title",
          "type": "string"
        },
        {
          "name": "author",
          "type": "string"
        },
        {
          "name": "origin",
          "type": "string"
        },
        {
          "name": "lang",
          "type": "string"
        },
        {
          "name": "paperback",
          "type": "uint256"
        },
        {
          "name": "publisherId",
          "type": "string"
        },
        {
          "name": "publishDate",
          "type": "uint256"
        }
      ],
      "name": "addBook",
      "outputs": [
        {
          "name": "returnKey",
          "type": "string"
        }
      ],
      "payable": false,
      "stateMutability": "nonpayable",
      "type": "function"
    },
    {
      "constant": false,
      "inputs": [
        {
          "name": "newKey",
          "type": "string"
        },
        {
          "name": "digest",
          "type": "uint256[]"
        }
      ],
      "name": "uploadDigest",
      "outputs": [
        {
          "name": "returnKey",
          "type": "string"
        }
      ],
      "payable": false,
      "stateMutability": "nonpayable",
      "type": "function"
    },
    {
      "constant": true,
      "inputs": [
        {
          "name": "key",
          "type": "string"
        }
      ],
      "name": "getBookByKey",
      "outputs": [
        {
          "name": "title",
          "type": "string"
        },
        {
          "name": "author",
          "type": "string"
        },
        {
          "name": "lang",
          "type": "string"
        },
        {
          "name": "publisherId",
          "type": "string"
        },
        {
          "name": "publishDate",
          "type": "uint256"
        }
      ],
      "payable": false,
      "stateMutability": "view",
      "type": "function"
    },
    {
      "constant": true,
      "inputs": [
        {
          "name": "newKey",
          "type": "string"
        }
      ],
      "name": "downloadDigest",
      "outputs": [
        {
          "name": "digest",
          "type": "uint256[]"
        }
      ],
      "payable": false,
      "stateMutability": "view",
      "type": "function"
    },
    {
      "constant": true,
      "inputs": [
        {
          "name": "key",
          "type": "string"
        }
      ],
      "name": "getAdditionalBookData",
      "outputs": [
        {
          "name": "origin",
          "type": "string"
        },
        {
          "name": "paperback",
          "type": "uint256"
        }
      ],
      "payable": false,
      "stateMutability": "view",
      "type": "function"
    }
  ],
  "bytecode": "0x608060405234801561001057600080fd5b50604051602080612b4483398101806040528101908080519060200190929190505050336000806101000a81548173ffffffffffffffffffffffffffffffffffffffff021916908373ffffffffffffffffffffffffffffffffffffffff16021790555060018060003373ffffffffffffffffffffffffffffffffffffffff1673ffffffffffffffffffffffffffffffffffffffff16815260200190815260200160002060006101000a81548160ff021916908315150217905550336000806101000a81548173ffffffffffffffffffffffffffffffffffffffff021916908373ffffffffffffffffffffffffffffffffffffffff16021790555080600260006101000a81548173ffffffffffffffffffffffffffffffffffffffff021916908373ffffffffffffffffffffffffffffffffffffffff160217905550506129e98061015b6000396000f30060806040526004361061008e576000357c0100000000000000000000000000000000000000000000000000000000900463ffffffff16806337410dfa146100935780636fd62bfe146101bb5780638da5cb5b146102795780638f32d59b146102d0578063a5709b7b146102ff578063b44fcd8114610424578063cbb873f714610651578063f83ccc2d146108a5575b600080fd5b34801561009f57600080fd5b50610140600480360381019080803590602001908201803590602001908080601f0160208091040260200160405190810160405280939291908181526020018383808284378201915050505050509192919290803590602001908201803590602001908080601f016020809104026020016040519081016040528093929190818152602001838380828437820191505050505050919291929050505061098e565b6040518080602001828103825283818151815260200191508051906020019080838360005b83811015610180578082015181840152602081019050610165565b50505050905090810190601f1680156101ad5780820380516001836020036101000a031916815260200191505b509250505060405180910390f35b3480156101c757600080fd5b50610222600480360381019080803590602001908201803590602001908080601f0160208091040260200160405190810160405280939291908181526020018383808284378201915050505050509192919290505050610da3565b6040518080602001828103825283818151815260200191508051906020019060200280838360005b8381101561026557808201518184015260208101905061024a565b505050509050019250505060405180910390f35b34801561028557600080fd5b5061028e610f6c565b604051808273ffffffffffffffffffffffffffffffffffffffff1673ffffffffffffffffffffffffffffffffffffffff16815260200191505060405180910390f35b3480156102dc57600080fd5b506102e5610f95565b604051808215151515815260200191505060405180910390f35b34801561030b57600080fd5b506103a9600480360381019080803590602001908201803590602001908080601f016020809104026020016040519081016040528093929190818152602001838380828437820191505050505050919291929080359060200190820180359060200190808060200260200160405190810160405280939291908181526020018383602002808284378201915050505050509192919290505050610fec565b6040518080602001828103825283818151815260200191508051906020019080838360005b838110156103e95780820151818401526020810190506103ce565b50505050905090810190601f1680156104165780820380516001836020036101000a031916815260200191505b509250505060405180910390f35b34801561043057600080fd5b5061048b600480360381019080803590602001908201803590602001908080601f0160208091040260200160405190810160405280939291908181526020018383808284378201915050505050509192919290505050611229565b604051808060200180602001806020018060200186815260200185810385528a818151815260200191508051906020019080838360005b838110156104dd5780820151818401526020810190506104c2565b50505050905090810190601f16801561050a5780820380516001836020036101000a031916815260200191505b50858103845289818151815260200191508051906020019080838360005b83811015610543578082015181840152602081019050610528565b50505050905090810190601f1680156105705780820380516001836020036101000a031916815260200191505b50858103835288818151815260200191508051906020019080838360005b838110156105a957808201518184015260208101905061058e565b50505050905090810190601f1680156105d65780820380516001836020036101000a031916815260200191505b50858103825287818151815260200191508051906020019080838360005b8381101561060f5780820151818401526020810190506105f4565b50505050905090810190601f16801561063c5780820380516001836020036101000a031916815260200191505b50995050505050505050505060405180910390f35b34801561065d57600080fd5b5061082a600480360381019080803590602001908201803590602001908080601f0160208091040260200160405190810160405280939291908181526020018383808284378201915050505050509192919290803590602001908201803590602001908080601f0160208091040260200160405190810160405280939291908181526020018383808284378201915050505050509192919290803590602001908201803590602001908080601f0160208091040260200160405190810160405280939291908181526020018383808284378201915050505050509192919290803590602001908201803590602001908080601f0160208091040260200160405190810160405280939291908181526020018383808284378201915050505050509192919290803590602001908201803590602001908080601f016020809104026020016040519081016040528093929190818152602001838380828437820191505050505050919291929080359060200190929190803590602001908201803590602001908080601f016020809104026020016040519081016040528093929190818152602001838380828437820191505050505050919291929080359060200190929190505050611aae565b6040518080602001828103825283818151815260200191508051906020019080838360005b8381101561086a57808201518184015260208101905061084f565b50505050905090810190601f1680156108975780820380516001836020036101000a031916815260200191505b509250505060405180910390f35b3480156108b157600080fd5b5061090c600480360381019080803590602001908201803590602001908080601f0160208091040260200160405190810160405280939291908181526020018383808284378201915050505050509192919290505050612686565b6040518080602001838152602001828103825284818151815260200191508051906020019080838360005b83811015610952578082015181840152602081019050610937565b50505050905090810190601f16801561097f5780820380516001836020036101000a031916815260200191505b50935050505060405180910390f35b6060610998610f95565b1515610a32576040517f08c379a000000000000000000000000000000000000000000000000000000000815260040180806020018281038252602b8152602001807f53656e646572206973206e6f7420617574686f72697a65642077697468206f7781526020017f6e657220706f6c6963792e00000000000000000000000000000000000000000081525060400191505060405180910390fd5b600260009054906101000a900473ffffffffffffffffffffffffffffffffffffffff1673ffffffffffffffffffffffffffffffffffffffff1663d121739784856040518363ffffffff167c010000000000000000000000000000000000000000000000000000000002815260040180806020018060200180602001848103845286818151815260200191508051906020019080838360005b83811015610ae5578082015181840152602081019050610aca565b50505050905090810190601f168015610b125780820380516001836020036101000a031916815260200191505b50848103835260048152602001807f6861736800000000000000000000000000000000000000000000000000000000815250602001848103825285818151815260200191508051906020019080838360005b83811015610b7f578082015181840152602081019050610b64565b50505050905090810190601f168015610bac5780820380516001836020036101000a031916815260200191505b5095505050505050600060405180830381600087803b158015610bce57600080fd5b505af1158015610be2573d6000803e3d6000fd5b50505050600260009054906101000a900473ffffffffffffffffffffffffffffffffffffffff1673ffffffffffffffffffffffffffffffffffffffff1663d121739783846040518363ffffffff167c010000000000000000000000000000000000000000000000000000000002815260040180806020018060200180602001848103845286818151815260200191508051906020019080838360005b83811015610c99578082015181840152602081019050610c7e565b50505050905090810190601f168015610cc65780820380516001836020036101000a031916815260200191505b508481038352600c8152602001807f626c6f636b5f6e756d6265720000000000000000000000000000000000000000815250602001848103825285818151815260200191508051906020019080838360005b83811015610d33578082015181840152602081019050610d18565b50505050905090810190601f168015610d605780820380516001836020036101000a031916815260200191505b5095505050505050600060405180830381600087803b158015610d8257600080fd5b505af1158015610d96573d6000803e3d6000fd5b5050505082905092915050565b6060600260009054906101000a900473ffffffffffffffffffffffffffffffffffffffff1673ffffffffffffffffffffffffffffffffffffffff1663e5c52730836040518263ffffffff167c0100000000000000000000000000000000000000000000000000000000028152600401808060200180602001838103835284818151815260200191508051906020019080838360005b83811015610e53578082015181840152602081019050610e38565b50505050905090810190601f168015610e805780820380516001836020036101000a031916815260200191505b50838103825260068152602001807f64696765737400000000000000000000000000000000000000000000000000008152506020019350505050600060405180830381600087803b158015610ed457600080fd5b505af1158015610ee8573d6000803e3d6000fd5b505050506040513d6000823e3d601f19601f820116820180604052506020811015610f1257600080fd5b810190808051640100000000811115610f2a57600080fd5b82810190506020810184811115610f4057600080fd5b8151856020820283011164010000000082111715610f5d57600080fd5b50509291905050509050919050565b60008060009054906101000a900473ffffffffffffffffffffffffffffffffffffffff16905090565b60008060009054906101000a900473ffffffffffffffffffffffffffffffffffffffff1673ffffffffffffffffffffffffffffffffffffffff163373ffffffffffffffffffffffffffffffffffffffff1614905090565b6060610ff6610f95565b1515611090576040517f08c379a000000000000000000000000000000000000000000000000000000000815260040180806020018281038252602b8152602001807f53656e646572206973206e6f7420617574686f72697a65642077697468206f7781526020017f6e657220706f6c6963792e00000000000000000000000000000000000000000081525060400191505060405180910390fd5b600260009054906101000a900473ffffffffffffffffffffffffffffffffffffffff1673ffffffffffffffffffffffffffffffffffffffff1663c821b75684846040518363ffffffff167c010000000000000000000000000000000000000000000000000000000002815260040180806020018060200180602001848103845286818151815260200191508051906020019080838360005b83811015611143578082015181840152602081019050611128565b50505050905090810190601f1680156111705780820380516001836020036101000a031916815260200191505b50848103835260068152602001807f6469676573740000000000000000000000000000000000000000000000000000815250602001848103825285818151815260200191508051906020019060200280838360005b838110156111e05780820151818401526020810190506111c5565b5050505090500195505050505050600060405180830381600087803b15801561120857600080fd5b505af115801561121c573d6000803e3d6000fd5b5050505082905092915050565b6060806060806000600260009054906101000a900473ffffffffffffffffffffffffffffffffffffffff1673ffffffffffffffffffffffffffffffffffffffff16633f7690ca876040518263ffffffff167c0100000000000000000000000000000000000000000000000000000000028152600401808060200180602001838103835284818151815260200191508051906020019080838360005b838110156112df5780820151818401526020810190506112c4565b50505050905090810190601f16801561130c5780820380516001836020036101000a031916815260200191505b50838103825260058152602001807f7469746c650000000000000000000000000000000000000000000000000000008152506020019350505050600060405180830381600087803b15801561136057600080fd5b505af1158015611374573d6000803e3d6000fd5b505050506040513d6000823e3d601f19601f82011682018060405250602081101561139e57600080fd5b8101908080516401000000008111156113b657600080fd5b828101905060208101848111156113cc57600080fd5b81518560018202830111640100000000821117156113e957600080fd5b50509291905050509450600260009054906101000a900473ffffffffffffffffffffffffffffffffffffffff1673ffffffffffffffffffffffffffffffffffffffff16633f7690ca876040518263ffffffff167c0100000000000000000000000000000000000000000000000000000000028152600401808060200180602001838103835284818151815260200191508051906020019080838360005b838110156114a1578082015181840152602081019050611486565b50505050905090810190601f1680156114ce5780820380516001836020036101000a031916815260200191505b50838103825260068152602001807f617574686f7200000000000000000000000000000000000000000000000000008152506020019350505050600060405180830381600087803b15801561152257600080fd5b505af1158015611536573d6000803e3d6000fd5b505050506040513d6000823e3d601f19601f82011682018060405250602081101561156057600080fd5b81019080805164010000000081111561157857600080fd5b8281019050602081018481111561158e57600080fd5b81518560018202830111640100000000821117156115ab57600080fd5b50509291905050509350600260009054906101000a900473ffffffffffffffffffffffffffffffffffffffff1673ffffffffffffffffffffffffffffffffffffffff16633f7690ca876040518263ffffffff167c0100000000000000000000000000000000000000000000000000000000028152600401808060200180602001838103835284818151815260200191508051906020019080838360005b83811015611663578082015181840152602081019050611648565b50505050905090810190601f1680156116905780820380516001836020036101000a031916815260200191505b50838103825260048152602001807f6c616e67000000000000000000000000000000000000000000000000000000008152506020019350505050600060405180830381600087803b1580156116e457600080fd5b505af11580156116f8573d6000803e3d6000fd5b505050506040513d6000823e3d601f19601f82011682018060405250602081101561172257600080fd5b81019080805164010000000081111561173a57600080fd5b8281019050602081018481111561175057600080fd5b815185600182028301116401000000008211171561176d57600080fd5b50509291905050509250600260009054906101000a900473ffffffffffffffffffffffffffffffffffffffff1673ffffffffffffffffffffffffffffffffffffffff16633f7690ca876040518263ffffffff167c0100000000000000000000000000000000000000000000000000000000028152600401808060200180602001838103835284818151815260200191508051906020019080838360005b8381101561182557808201518184015260208101905061180a565b50505050905090810190601f1680156118525780820380516001836020036101000a031916815260200191505b508381038252600c8152602001807f7075626c69736865725f696400000000000000000000000000000000000000008152506020019350505050600060405180830381600087803b1580156118a657600080fd5b505af11580156118ba573d6000803e3d6000fd5b505050506040513d6000823e3d601f19601f8201168201806040525060208110156118e457600080fd5b8101908080516401000000008111156118fc57600080fd5b8281019050602081018481111561191257600080fd5b815185600182028301116401000000008211171561192f57600080fd5b50509291905050509150600260009054906101000a900473ffffffffffffffffffffffffffffffffffffffff1673ffffffffffffffffffffffffffffffffffffffff16635df6d3cc876040518263ffffffff167c0100000000000000000000000000000000000000000000000000000000028152600401808060200180602001838103835284818151815260200191508051906020019080838360005b838110156119e75780820151818401526020810190506119cc565b50505050905090810190601f168015611a145780820380516001836020036101000a031916815260200191505b508381038252600c8152602001807f7075626c6973685f6461746500000000000000000000000000000000000000008152506020019350505050602060405180830381600087803b158015611a6857600080fd5b505af1158015611a7c573d6000803e3d6000fd5b505050506040513d6020811015611a9257600080fd5b8101908080519060200190929190505050905091939590929450565b6060611ab8610f95565b1515611b52576040517f08c379a000000000000000000000000000000000000000000000000000000000815260040180806020018281038252602b8152602001807f53656e646572206973206e6f7420617574686f72697a65642077697468206f7781526020017f6e657220706f6c6963792e00000000000000000000000000000000000000000081525060400191505060405180910390fd5b889050600260009054906101000a900473ffffffffffffffffffffffffffffffffffffffff1673ffffffffffffffffffffffffffffffffffffffff1663d12173978a8a6040518363ffffffff167c010000000000000000000000000000000000000000000000000000000002815260040180806020018060200180602001848103845286818151815260200191508051906020019080838360005b83811015611c08578082015181840152602081019050611bed565b50505050905090810190601f168015611c355780820380516001836020036101000a031916815260200191505b50848103835260058152602001807f7469746c65000000000000000000000000000000000000000000000000000000815250602001848103825285818151815260200191508051906020019080838360005b83811015611ca2578082015181840152602081019050611c87565b50505050905090810190601f168015611ccf5780820380516001836020036101000a031916815260200191505b5095505050505050600060405180830381600087803b158015611cf157600080fd5b505af1158015611d05573d6000803e3d6000fd5b50505050600260009054906101000a900473ffffffffffffffffffffffffffffffffffffffff1673ffffffffffffffffffffffffffffffffffffffff1663d12173978a896040518363ffffffff167c010000000000000000000000000000000000000000000000000000000002815260040180806020018060200180602001848103845286818151815260200191508051906020019080838360005b83811015611dbc578082015181840152602081019050611da1565b50505050905090810190601f168015611de95780820380516001836020036101000a031916815260200191505b50848103835260068152602001807f617574686f720000000000000000000000000000000000000000000000000000815250602001848103825285818151815260200191508051906020019080838360005b83811015611e56578082015181840152602081019050611e3b565b50505050905090810190601f168015611e835780820380516001836020036101000a031916815260200191505b5095505050505050600060405180830381600087803b158015611ea557600080fd5b505af1158015611eb9573d6000803e3d6000fd5b50505050600260009054906101000a900473ffffffffffffffffffffffffffffffffffffffff1673ffffffffffffffffffffffffffffffffffffffff1663d12173978a886040518363ffffffff167c010000000000000000000000000000000000000000000000000000000002815260040180806020018060200180602001848103845286818151815260200191508051906020019080838360005b83811015611f70578082015181840152602081019050611f55565b50505050905090810190601f168015611f9d5780820380516001836020036101000a031916815260200191505b50848103835260068152602001807f6f726967696e0000000000000000000000000000000000000000000000000000815250602001848103825285818151815260200191508051906020019080838360005b8381101561200a578082015181840152602081019050611fef565b50505050905090810190601f1680156120375780820380516001836020036101000a031916815260200191505b5095505050505050600060405180830381600087803b15801561205957600080fd5b505af115801561206d573d6000803e3d6000fd5b50505050600260009054906101000a900473ffffffffffffffffffffffffffffffffffffffff1673ffffffffffffffffffffffffffffffffffffffff1663d12173978a876040518363ffffffff167c010000000000000000000000000000000000000000000000000000000002815260040180806020018060200180602001848103845286818151815260200191508051906020019080838360005b83811015612124578082015181840152602081019050612109565b50505050905090810190601f1680156121515780820380516001836020036101000a031916815260200191505b50848103835260048152602001807f6c616e6700000000000000000000000000000000000000000000000000000000815250602001848103825285818151815260200191508051906020019080838360005b838110156121be5780820151818401526020810190506121a3565b50505050905090810190601f1680156121eb5780820380516001836020036101000a031916815260200191505b5095505050505050600060405180830381600087803b15801561220d57600080fd5b505af1158015612221573d6000803e3d6000fd5b50505050600260009054906101000a900473ffffffffffffffffffffffffffffffffffffffff1673ffffffffffffffffffffffffffffffffffffffff166356b44b2c8a866040518363ffffffff167c0100000000000000000000000000000000000000000000000000000000028152600401808060200180602001848152602001838103835285818151815260200191508051906020019080838360005b838110156122da5780820151818401526020810190506122bf565b50505050905090810190601f1680156123075780820380516001836020036101000a031916815260200191505b50838103825260098152602001807f70617065726261636b0000000000000000000000000000000000000000000000815250602001945050505050600060405180830381600087803b15801561235c57600080fd5b505af1158015612370573d6000803e3d6000fd5b50505050600260009054906101000a900473ffffffffffffffffffffffffffffffffffffffff1673ffffffffffffffffffffffffffffffffffffffff1663d12173978a856040518363ffffffff167c010000000000000000000000000000000000000000000000000000000002815260040180806020018060200180602001848103845286818151815260200191508051906020019080838360005b8381101561242757808201518184015260208101905061240c565b50505050905090810190601f1680156124545780820380516001836020036101000a031916815260200191505b508481038352600c8152602001807f7075626c69736865725f69640000000000000000000000000000000000000000815250602001848103825285818151815260200191508051906020019080838360005b838110156124c15780820151818401526020810190506124a6565b50505050905090810190601f1680156124ee5780820380516001836020036101000a031916815260200191505b5095505050505050600060405180830381600087803b15801561251057600080fd5b505af1158015612524573d6000803e3d6000fd5b50505050600260009054906101000a900473ffffffffffffffffffffffffffffffffffffffff1673ffffffffffffffffffffffffffffffffffffffff166356b44b2c8a846040518363ffffffff167c0100000000000000000000000000000000000000000000000000000000028152600401808060200180602001848152602001838103835285818151815260200191508051906020019080838360005b838110156125dd5780820151818401526020810190506125c2565b50505050905090810190601f16801561260a5780820380516001836020036101000a031916815260200191505b508381038252600c8152602001807f7075626c6973685f646174650000000000000000000000000000000000000000815250602001945050505050600060405180830381600087803b15801561265f57600080fd5b505af1158015612673573d6000803e3d6000fd5b5050505080905098975050505050505050565b60606000600260009054906101000a900473ffffffffffffffffffffffffffffffffffffffff1673ffffffffffffffffffffffffffffffffffffffff16633f7690ca846040518263ffffffff167c0100000000000000000000000000000000000000000000000000000000028152600401808060200180602001838103835284818151815260200191508051906020019080838360005b8381101561273857808201518184015260208101905061271d565b50505050905090810190601f1680156127655780820380516001836020036101000a031916815260200191505b50838103825260068152602001807f6f726967696e00000000000000000000000000000000000000000000000000008152506020019350505050600060405180830381600087803b1580156127b957600080fd5b505af11580156127cd573d6000803e3d6000fd5b505050506040513d6000823e3d601f19601f8201168201806040525060208110156127f757600080fd5b81019080805164010000000081111561280f57600080fd5b8281019050602081018481111561282557600080fd5b815185600182028301116401000000008211171561284257600080fd5b50509291905050509150600260009054906101000a900473ffffffffffffffffffffffffffffffffffffffff1673ffffffffffffffffffffffffffffffffffffffff16635df6d3cc846040518263ffffffff167c0100000000000000000000000000000000000000000000000000000000028152600401808060200180602001838103835284818151815260200191508051906020019080838360005b838110156128fa5780820151818401526020810190506128df565b50505050905090810190601f1680156129275780820380516001836020036101000a031916815260200191505b50838103825260098152602001807f70617065726261636b00000000000000000000000000000000000000000000008152506020019350505050602060405180830381600087803b15801561297b57600080fd5b505af115801561298f573d6000803e3d6000fd5b505050506040513d60208110156129a557600080fd5b810190808051906020019092919050505090509150915600a165627a7a72305820fa62077315ce99425435eaac7c5aa30570dd76aa9d5220612806d829833800540029",
  "source": "pragma solidity ^0.4.24;\n\nimport \"../persistence/Storage.sol\";\nimport \"../security/AccessRestriction.sol\";\nimport \"../common/Event.sol\";\n\ncontract MetaDataController is AccessRestriction,Event{\n\n    Storage _storage;\n\n    constructor (address storageAddress) public{\n        _owner = msg.sender;\n        _storage = Storage(storageAddress);\n    }\n\n    function addAsset(string h, string blockNo) public onlyOwner returns (string) {\n        _storage.setString(h,\"hash\",h);\n        _storage.setString(blockNo,\"block_number\",blockNo);\n        return h; \n    }\n\n    function addBook(string newKey,string title,string author,string origin,string lang,uint256 paperback,string publisherId,uint256 publishDate) public onlyOwner returns(string returnKey) {\n        // Validate data\n        // newKey = _storage.getNewKey();\n        returnKey = newKey;\n        // emit OutputString(\"title\",title);\n        // emit OutputString(\"author\",author);\n        _storage.setString(newKey,\"title\",title);\n        _storage.setString(newKey,\"author\",author);\n        _storage.setString(newKey,\"origin\",origin);\n        _storage.setString(newKey,\"lang\",lang);\n        _storage.setUint(newKey,\"paperback\",paperback);\n        _storage.setString(newKey,\"publisher_id\",publisherId);\n        _storage.setUint(newKey,\"publish_date\",publishDate);\n        return returnKey;\n    }\n\n    function uploadDigest(string newKey,uint256[] digest) public onlyOwner returns(string returnKey) {\n        _storage.setUintArray(newKey,\"digest\",digest);\n\n        returnKey = newKey;\n    }\n\n    function getBookByKey(string key) public view returns(string title,string author,string lang,string publisherId,uint256 publishDate) {\n         title = _storage.getString(key,\"title\");\n         author = _storage.getString(key,\"author\");\n         lang = _storage.getString(key,\"lang\");\n         publisherId = _storage.getString(key,\"publisher_id\");\n         publishDate = _storage.getUint(key,\"publish_date\");\n    }\n\n    function downloadDigest(string newKey) public view returns(uint256[] digest) {\n        digest = _storage.getUintArray(newKey,\"digest\");\n    }\n\n    function getAdditionalBookData(string key) public view returns(string origin,uint256 paperback) {\n        origin = _storage.getString(key,\"origin\");\n        paperback = _storage.getUint(key,\"paperback\");\n    }\n\n}",
  "sourcePath": "/Users/zatan007/Documents/sixecho-server/contract/contracts/controller/MetaDataController.sol",
  "compiler": {
    "name": "solc",
    "version": "0.4.25+commit.59dbf8f1.Emscripten.clang"
  },
  "schemaVersion": "2.0.2",
  "updatedAt": "2019-09-30T11:40:32.217Z"
}